{
  "_format": "hh-sol-artifact-1",
  "contractName": "MYNFT",
  "sourceName": "contracts/MYNFT.sol",
  "abi": [
    {
      "anonymous": false,
      "inputs": [
        {
          "indexed": false,
          "internalType": "address",
          "name": "previousAdmin",
          "type": "address"
        },
        {
          "indexed": false,
          "internalType": "address",
          "name": "newAdmin",
          "type": "address"
        }
      ],
      "name": "AdminChanged",
      "type": "event"
    },
    {
      "anonymous": false,
      "inputs": [
        {
          "indexed": true,
          "internalType": "address",
          "name": "owner",
          "type": "address"
        },
        {
          "indexed": true,
          "internalType": "address",
          "name": "approved",
          "type": "address"
        },
        {
          "indexed": true,
          "internalType": "uint256",
          "name": "tokenId",
          "type": "uint256"
        }
      ],
      "name": "Approval",
      "type": "event"
    },
    {
      "anonymous": false,
      "inputs": [
        {
          "indexed": true,
          "internalType": "address",
          "name": "owner",
          "type": "address"
        },
        {
          "indexed": true,
          "internalType": "address",
          "name": "operator",
          "type": "address"
        },
        {
          "indexed": false,
          "internalType": "bool",
          "name": "approved",
          "type": "bool"
        }
      ],
      "name": "ApprovalForAll",
      "type": "event"
    },
    {
      "anonymous": false,
      "inputs": [
        {
          "indexed": true,
          "internalType": "address",
          "name": "beacon",
          "type": "address"
        }
      ],
      "name": "BeaconUpgraded",
      "type": "event"
    },
    {
      "anonymous": false,
      "inputs": [
        {
          "indexed": false,
          "internalType": "uint8",
          "name": "version",
          "type": "uint8"
        }
      ],
      "name": "Initialized",
      "type": "event"
    },
    {
      "anonymous": false,
      "inputs": [
        {
          "indexed": true,
          "internalType": "address",
          "name": "previousOwner",
          "type": "address"
        },
        {
          "indexed": true,
          "internalType": "address",
          "name": "newOwner",
          "type": "address"
        }
      ],
      "name": "OwnershipTransferred",
      "type": "event"
    },
    {
      "anonymous": false,
      "inputs": [
        {
          "indexed": true,
          "internalType": "address",
          "name": "from",
          "type": "address"
        },
        {
          "indexed": true,
          "internalType": "address",
          "name": "to",
          "type": "address"
        },
        {
          "indexed": true,
          "internalType": "uint256",
          "name": "tokenId",
          "type": "uint256"
        }
      ],
      "name": "Transfer",
      "type": "event"
    },
    {
      "anonymous": false,
      "inputs": [
        {
          "indexed": true,
          "internalType": "address",
          "name": "implementation",
          "type": "address"
        }
      ],
      "name": "Upgraded",
      "type": "event"
    },
    {
      "inputs": [
        {
          "internalType": "address",
          "name": "to",
          "type": "address"
        },
        {
          "internalType": "uint256",
          "name": "tokenId",
          "type": "uint256"
        }
      ],
      "name": "approve",
      "outputs": [],
      "stateMutability": "nonpayable",
      "type": "function"
    },
    {
      "inputs": [
        {
          "internalType": "address",
          "name": "owner",
          "type": "address"
        }
      ],
      "name": "balanceOf",
      "outputs": [
        {
          "internalType": "uint256",
          "name": "",
          "type": "uint256"
        }
      ],
      "stateMutability": "view",
      "type": "function"
    },
    {
      "inputs": [
        {
          "internalType": "uint256",
          "name": "tokenId",
          "type": "uint256"
        }
      ],
      "name": "getApproved",
      "outputs": [
        {
          "internalType": "address",
          "name": "",
          "type": "address"
        }
      ],
      "stateMutability": "view",
      "type": "function"
    },
    {
      "inputs": [],
      "name": "initialize",
      "outputs": [],
      "stateMutability": "nonpayable",
      "type": "function"
    },
    {
      "inputs": [
        {
          "internalType": "address",
          "name": "owner",
          "type": "address"
        },
        {
          "internalType": "address",
          "name": "operator",
          "type": "address"
        }
      ],
      "name": "isApprovedForAll",
      "outputs": [
        {
          "internalType": "bool",
          "name": "",
          "type": "bool"
        }
      ],
      "stateMutability": "view",
      "type": "function"
    },
    {
      "inputs": [
        {
          "internalType": "string",
          "name": "tokenURI",
          "type": "string"
        }
      ],
      "name": "mint",
      "outputs": [
        {
          "internalType": "uint256",
          "name": "",
          "type": "uint256"
        }
      ],
      "stateMutability": "nonpayable",
      "type": "function"
    },
    {
      "inputs": [],
      "name": "name",
      "outputs": [
        {
          "internalType": "string",
          "name": "",
          "type": "string"
        }
      ],
      "stateMutability": "view",
      "type": "function"
    },
    {
      "inputs": [],
      "name": "owner",
      "outputs": [
        {
          "internalType": "address",
          "name": "",
          "type": "address"
        }
      ],
      "stateMutability": "view",
      "type": "function"
    },
    {
      "inputs": [
        {
          "internalType": "uint256",
          "name": "tokenId",
          "type": "uint256"
        }
      ],
      "name": "ownerOf",
      "outputs": [
        {
          "internalType": "address",
          "name": "",
          "type": "address"
        }
      ],
      "stateMutability": "view",
      "type": "function"
    },
    {
      "inputs": [],
      "name": "proxiableUUID",
      "outputs": [
        {
          "internalType": "bytes32",
          "name": "",
          "type": "bytes32"
        }
      ],
      "stateMutability": "view",
      "type": "function"
    },
    {
      "inputs": [],
      "name": "renounceOwnership",
      "outputs": [],
      "stateMutability": "nonpayable",
      "type": "function"
    },
    {
      "inputs": [
        {
          "internalType": "address",
          "name": "from",
          "type": "address"
        },
        {
          "internalType": "address",
          "name": "to",
          "type": "address"
        },
        {
          "internalType": "uint256",
          "name": "tokenId",
          "type": "uint256"
        }
      ],
      "name": "safeTransferFrom",
      "outputs": [],
      "stateMutability": "nonpayable",
      "type": "function"
    },
    {
      "inputs": [
        {
          "internalType": "address",
          "name": "from",
          "type": "address"
        },
        {
          "internalType": "address",
          "name": "to",
          "type": "address"
        },
        {
          "internalType": "uint256",
          "name": "tokenId",
          "type": "uint256"
        },
        {
          "internalType": "bytes",
          "name": "_data",
          "type": "bytes"
        }
      ],
      "name": "safeTransferFrom",
      "outputs": [],
      "stateMutability": "nonpayable",
      "type": "function"
    },
    {
      "inputs": [
        {
          "internalType": "address",
          "name": "operator",
          "type": "address"
        },
        {
          "internalType": "bool",
          "name": "approved",
          "type": "bool"
        }
      ],
      "name": "setApprovalForAll",
      "outputs": [],
      "stateMutability": "nonpayable",
      "type": "function"
    },
    {
      "inputs": [
        {
          "internalType": "bytes4",
          "name": "interfaceId",
          "type": "bytes4"
        }
      ],
      "name": "supportsInterface",
      "outputs": [
        {
          "internalType": "bool",
          "name": "",
          "type": "bool"
        }
      ],
      "stateMutability": "view",
      "type": "function"
    },
    {
      "inputs": [],
      "name": "symbol",
      "outputs": [
        {
          "internalType": "string",
          "name": "",
          "type": "string"
        }
      ],
      "stateMutability": "view",
      "type": "function"
    },
    {
      "inputs": [
        {
          "internalType": "uint256",
          "name": "tokenId",
          "type": "uint256"
        }
      ],
      "name": "tokenURI",
      "outputs": [
        {
          "internalType": "string",
          "name": "",
          "type": "string"
        }
      ],
      "stateMutability": "view",
      "type": "function"
    },
    {
      "inputs": [
        {
          "internalType": "address",
          "name": "from",
          "type": "address"
        },
        {
          "internalType": "address",
          "name": "to",
          "type": "address"
        },
        {
          "internalType": "uint256",
          "name": "tokenId",
          "type": "uint256"
        }
      ],
      "name": "transferFrom",
      "outputs": [],
      "stateMutability": "nonpayable",
      "type": "function"
    },
    {
      "inputs": [
        {
          "internalType": "address",
          "name": "newOwner",
          "type": "address"
        }
      ],
      "name": "transferOwnership",
      "outputs": [],
      "stateMutability": "nonpayable",
      "type": "function"
    },
    {
      "inputs": [
        {
          "internalType": "address",
          "name": "newImplementation",
          "type": "address"
        }
      ],
      "name": "upgradeTo",
      "outputs": [],
      "stateMutability": "nonpayable",
      "type": "function"
    },
    {
      "inputs": [
        {
          "internalType": "address",
          "name": "newImplementation",
          "type": "address"
        },
        {
          "internalType": "bytes",
          "name": "data",
          "type": "bytes"
        }
      ],
      "name": "upgradeToAndCall",
      "outputs": [],
      "stateMutability": "payable",
      "type": "function"
    }
  ],
  "bytecode": "0x60a06040523073ffffffffffffffffffffffffffffffffffffffff1660809073ffffffffffffffffffffffffffffffffffffffff1681525034801561004357600080fd5b506080516145e861007b60003960008181610861015281816108ef01528181610a0901528181610a970152610b4701526145e86000f3fe60806040526004361061012a5760003560e01c806370a08231116100ab578063a22cb4651161006f578063a22cb465146103bd578063b88d4fde146103e6578063c87b56dd1461040f578063d85d3d271461044c578063e985e9c514610489578063f2fde38b146104c65761012a565b806370a08231146102fc578063715018a6146103395780638129fc1c146103505780638da5cb5b1461036757806395d89b41146103925761012a565b80633659cfe6116100f25780633659cfe61461022657806342842e0e1461024f5780634f1ef2861461027857806352d1902d146102945780636352211e146102bf5761012a565b806301ffc9a71461012f57806306fdde031461016c578063081812fc14610197578063095ea7b3146101d457806323b872dd146101fd575b600080fd5b34801561013b57600080fd5b50610156600480360381019061015191906128fb565b6104ef565b6040516101639190612943565b60405180910390f35b34801561017857600080fd5b506101816105d1565b60405161018e91906129f7565b60405180910390f35b3480156101a357600080fd5b506101be60048036038101906101b99190612a4f565b610663565b6040516101cb9190612abd565b60405180910390f35b3480156101e057600080fd5b506101fb60048036038101906101f69190612b04565b6106e8565b005b34801561020957600080fd5b50610224600480360381019061021f9190612b44565b6107ff565b005b34801561023257600080fd5b5061024d60048036038101906102489190612b97565b61085f565b005b34801561025b57600080fd5b5061027660048036038101906102719190612b44565b6109e7565b005b610292600480360381019061028d9190612cf9565b610a07565b005b3480156102a057600080fd5b506102a9610b43565b6040516102b69190612d6e565b60405180910390f35b3480156102cb57600080fd5b506102e660048036038101906102e19190612a4f565b610bfc565b6040516102f39190612abd565b60405180910390f35b34801561030857600080fd5b50610323600480360381019061031e9190612b97565b610cad565b6040516103309190612d98565b60405180910390f35b34801561034557600080fd5b5061034e610d64565b005b34801561035c57600080fd5b50610365610dec565b005b34801561037357600080fd5b5061037c610efc565b6040516103899190612abd565b60405180910390f35b34801561039e57600080fd5b506103a7610f27565b6040516103b491906129f7565b60405180910390f35b3480156103c957600080fd5b506103e460048036038101906103df9190612ddf565b610fb9565b005b3480156103f257600080fd5b5061040d60048036038101906104089190612e1f565b610fcf565b005b34801561041b57600080fd5b5061043660048036038101906104319190612a4f565b611031565b60405161044391906129f7565b60405180910390f35b34801561045857600080fd5b50610473600480360381019061046e9190612f43565b611182565b6040516104809190612d98565b60405180910390f35b34801561049557600080fd5b506104b060048036038101906104ab9190612f8c565b6111bb565b6040516104bd9190612943565b60405180910390f35b3480156104d257600080fd5b506104ed60048036038101906104e89190612b97565b61124f565b005b60007f80ac58cd000000000000000000000000000000000000000000000000000000007bffffffffffffffffffffffffffffffffffffffffffffffffffffffff1916827bffffffffffffffffffffffffffffffffffffffffffffffffffffffff191614806105ba57507f5b5e139f000000000000000000000000000000000000000000000000000000007bffffffffffffffffffffffffffffffffffffffffffffffffffffffff1916827bffffffffffffffffffffffffffffffffffffffffffffffffffffffff1916145b806105ca57506105c982611346565b5b9050919050565b6060606580546105e090612ffb565b80601f016020809104026020016040519081016040528092919081815260200182805461060c90612ffb565b80156106595780601f1061062e57610100808354040283529160200191610659565b820191906000526020600020905b81548152906001019060200180831161063c57829003601f168201915b5050505050905090565b600061066e826113b0565b6106ad576040517f08c379a00000000000000000000000000000000000000000000000000000000081526004016106a49061309e565b60405180910390fd5b6069600083815260200190815260200160002060009054906101000a900473ffffffffffffffffffffffffffffffffffffffff169050919050565b60006106f382610bfc565b90508073ffffffffffffffffffffffffffffffffffffffff168373ffffffffffffffffffffffffffffffffffffffff1603610763576040517f08c379a000000000000000000000000000000000000000000000000000000000815260040161075a90613130565b60405180910390fd5b8073ffffffffffffffffffffffffffffffffffffffff1661078261141c565b73ffffffffffffffffffffffffffffffffffffffff1614806107b157506107b0816107ab61141c565b6111bb565b5b6107f0576040517f08c379a00000000000000000000000000000000000000000000000000000000081526004016107e7906131c2565b60405180910390fd5b6107fa8383611424565b505050565b61081061080a61141c565b826114dd565b61084f576040517f08c379a000000000000000000000000000000000000000000000000000000000815260040161084690613254565b60405180910390fd5b61085a8383836115bb565b505050565b7f000000000000000000000000000000000000000000000000000000000000000073ffffffffffffffffffffffffffffffffffffffff163073ffffffffffffffffffffffffffffffffffffffff16036108ed576040517f08c379a00000000000000000000000000000000000000000000000000000000081526004016108e4906132e6565b60405180910390fd5b7f000000000000000000000000000000000000000000000000000000000000000073ffffffffffffffffffffffffffffffffffffffff1661092c611821565b73ffffffffffffffffffffffffffffffffffffffff1614610982576040517f08c379a000000000000000000000000000000000000000000000000000000000815260040161097990613378565b60405180910390fd5b61098b81611878565b6109e481600067ffffffffffffffff8111156109aa576109a9612bce565b5b6040519080825280601f01601f1916602001820160405280156109dc5781602001600182028036833780820191505090505b5060006118f7565b50565b610a0283838360405180602001604052806000815250610fcf565b505050565b7f000000000000000000000000000000000000000000000000000000000000000073ffffffffffffffffffffffffffffffffffffffff163073ffffffffffffffffffffffffffffffffffffffff1603610a95576040517f08c379a0000000000000000000000000000000000000000000000000000000008152600401610a8c906132e6565b60405180910390fd5b7f000000000000000000000000000000000000000000000000000000000000000073ffffffffffffffffffffffffffffffffffffffff16610ad4611821565b73ffffffffffffffffffffffffffffffffffffffff1614610b2a576040517f08c379a0000000000000000000000000000000000000000000000000000000008152600401610b2190613378565b60405180910390fd5b610b3382611878565b610b3f828260016118f7565b5050565b60007f000000000000000000000000000000000000000000000000000000000000000073ffffffffffffffffffffffffffffffffffffffff163073ffffffffffffffffffffffffffffffffffffffff1614610bd3576040517f08c379a0000000000000000000000000000000000000000000000000000000008152600401610bca9061340a565b60405180910390fd5b7f360894a13ba1a3210667c828492db98dca3e2076cc3735a920a3ca505d382bbc60001b905090565b6000806067600084815260200190815260200160002060009054906101000a900473ffffffffffffffffffffffffffffffffffffffff169050600073ffffffffffffffffffffffffffffffffffffffff168173ffffffffffffffffffffffffffffffffffffffff1603610ca4576040517f08c379a0000000000000000000000000000000000000000000000000000000008152600401610c9b9061349c565b60405180910390fd5b80915050919050565b60008073ffffffffffffffffffffffffffffffffffffffff168273ffffffffffffffffffffffffffffffffffffffff1603610d1d576040517f08c379a0000000000000000000000000000000000000000000000000000000008152600401610d149061352e565b60405180910390fd5b606860008373ffffffffffffffffffffffffffffffffffffffff1673ffffffffffffffffffffffffffffffffffffffff168152602001908152602001600020549050919050565b610d6c61141c565b73ffffffffffffffffffffffffffffffffffffffff16610d8a610efc565b73ffffffffffffffffffffffffffffffffffffffff1614610de0576040517f08c379a0000000000000000000000000000000000000000000000000000000008152600401610dd79061359a565b60405180910390fd5b610dea6000611a65565b565b6000610df86001611b2d565b90508015610e1c576001600060016101000a81548160ff0219169083151502179055505b610e906040518060400160405280600b81526020017f506f6b656d6f6e5f4e46540000000000000000000000000000000000000000008152506040518060400160405280600581526020017f504b4e4654000000000000000000000000000000000000000000000000000000815250611c1d565b610e98611c7a565b610ea0611cd3565b8015610ef95760008060016101000a81548160ff0219169083151502179055507f7f26b83ff96e1f2b6a682f133852f6798a09c465da95921460cefb38474024986001604051610ef0919061360c565b60405180910390a15b50565b600061012d60009054906101000a900473ffffffffffffffffffffffffffffffffffffffff16905090565b606060668054610f3690612ffb565b80601f0160208091040260200160405190810160405280929190818152602001828054610f6290612ffb565b8015610faf5780601f10610f8457610100808354040283529160200191610faf565b820191906000526020600020905b815481529060010190602001808311610f9257829003601f168201915b5050505050905090565b610fcb610fc461141c565b8383611d24565b5050565b610fe0610fda61141c565b836114dd565b61101f576040517f08c379a000000000000000000000000000000000000000000000000000000000815260040161101690613254565b60405180910390fd5b61102b84848484611e90565b50505050565b606061103c826113b0565b61107b576040517f08c379a000000000000000000000000000000000000000000000000000000000815260040161107290613699565b60405180910390fd5b600060976000848152602001908152602001600020805461109b90612ffb565b80601f01602080910402602001604051908101604052809291908181526020018280546110c790612ffb565b80156111145780601f106110e957610100808354040283529160200191611114565b820191906000526020600020905b8154815290600101906020018083116110f757829003601f168201915b505050505090506000611125611eec565b9050600081510361113a57819250505061117d565b60008251111561116f5780826040516020016111579291906136f5565b6040516020818303038152906040529250505061117d565b61117884611f03565b925050505b919050565b600061118f61015f611faa565b600061119c61015f611fc0565b90506111a83382611fce565b6111b281846121a7565b80915050919050565b6000606a60008473ffffffffffffffffffffffffffffffffffffffff1673ffffffffffffffffffffffffffffffffffffffff16815260200190815260200160002060008373ffffffffffffffffffffffffffffffffffffffff1673ffffffffffffffffffffffffffffffffffffffff16815260200190815260200160002060009054906101000a900460ff16905092915050565b61125761141c565b73ffffffffffffffffffffffffffffffffffffffff16611275610efc565b73ffffffffffffffffffffffffffffffffffffffff16146112cb576040517f08c379a00000000000000000000000000000000000000000000000000000000081526004016112c29061359a565b60405180910390fd5b600073ffffffffffffffffffffffffffffffffffffffff168173ffffffffffffffffffffffffffffffffffffffff160361133a576040517f08c379a00000000000000000000000000000000000000000000000000000000081526004016113319061378b565b60405180910390fd5b61134381611a65565b50565b60007f01ffc9a7000000000000000000000000000000000000000000000000000000007bffffffffffffffffffffffffffffffffffffffffffffffffffffffff1916827bffffffffffffffffffffffffffffffffffffffffffffffffffffffff1916149050919050565b60008073ffffffffffffffffffffffffffffffffffffffff166067600084815260200190815260200160002060009054906101000a900473ffffffffffffffffffffffffffffffffffffffff1673ffffffffffffffffffffffffffffffffffffffff1614159050919050565b600033905090565b816069600083815260200190815260200160002060006101000a81548173ffffffffffffffffffffffffffffffffffffffff021916908373ffffffffffffffffffffffffffffffffffffffff160217905550808273ffffffffffffffffffffffffffffffffffffffff1661149783610bfc565b73ffffffffffffffffffffffffffffffffffffffff167f8c5be1e5ebec7d5bd14f71427d1e84f3dd0314c0f7b2291e5b200ac8c7c3b92560405160405180910390a45050565b60006114e8826113b0565b611527576040517f08c379a000000000000000000000000000000000000000000000000000000000815260040161151e9061381d565b60405180910390fd5b600061153283610bfc565b90508073ffffffffffffffffffffffffffffffffffffffff168473ffffffffffffffffffffffffffffffffffffffff161480611574575061157381856111bb565b5b806115b257508373ffffffffffffffffffffffffffffffffffffffff1661159a84610663565b73ffffffffffffffffffffffffffffffffffffffff16145b91505092915050565b8273ffffffffffffffffffffffffffffffffffffffff166115db82610bfc565b73ffffffffffffffffffffffffffffffffffffffff1614611631576040517f08c379a0000000000000000000000000000000000000000000000000000000008152600401611628906138af565b60405180910390fd5b600073ffffffffffffffffffffffffffffffffffffffff168273ffffffffffffffffffffffffffffffffffffffff16036116a0576040517f08c379a000000000000000000000000000000000000000000000000000000000815260040161169790613941565b60405180910390fd5b6116ab838383612214565b6116b6600082611424565b6001606860008573ffffffffffffffffffffffffffffffffffffffff1673ffffffffffffffffffffffffffffffffffffffff16815260200190815260200160002060008282546117069190613990565b925050819055506001606860008473ffffffffffffffffffffffffffffffffffffffff1673ffffffffffffffffffffffffffffffffffffffff168152602001908152602001600020600082825461175d91906139c4565b92505081905550816067600083815260200190815260200160002060006101000a81548173ffffffffffffffffffffffffffffffffffffffff021916908373ffffffffffffffffffffffffffffffffffffffff160217905550808273ffffffffffffffffffffffffffffffffffffffff168473ffffffffffffffffffffffffffffffffffffffff167fddf252ad1be2c89b69c2b068fc378daa952ba7f163c4a11628f55a4df523b3ef60405160405180910390a461181c838383612219565b505050565b600061184f7f360894a13ba1a3210667c828492db98dca3e2076cc3735a920a3ca505d382bbc60001b61221e565b60000160009054906101000a900473ffffffffffffffffffffffffffffffffffffffff16905090565b61188061141c565b73ffffffffffffffffffffffffffffffffffffffff1661189e610efc565b73ffffffffffffffffffffffffffffffffffffffff16146118f4576040517f08c379a00000000000000000000000000000000000000000000000000000000081526004016118eb9061359a565b60405180910390fd5b50565b6119237f4910fdfa16fed3260ed0e7147f7cc6da11a60208b5b9406d12a635614ffd914360001b612228565b60000160009054906101000a900460ff16156119475761194283612232565b611a60565b8273ffffffffffffffffffffffffffffffffffffffff166352d1902d6040518163ffffffff1660e01b8152600401602060405180830381865afa9250505080156119af57506040513d601f19601f820116820180604052508101906119ac9190613a46565b60015b6119ee576040517f08c379a00000000000000000000000000000000000000000000000000000000081526004016119e590613ae5565b60405180910390fd5b7f360894a13ba1a3210667c828492db98dca3e2076cc3735a920a3ca505d382bbc60001b8114611a53576040517f08c379a0000000000000000000000000000000000000000000000000000000008152600401611a4a90613b77565b60405180910390fd5b50611a5f8383836122eb565b5b505050565b600061012d60009054906101000a900473ffffffffffffffffffffffffffffffffffffffff1690508161012d60006101000a81548173ffffffffffffffffffffffffffffffffffffffff021916908373ffffffffffffffffffffffffffffffffffffffff1602179055508173ffffffffffffffffffffffffffffffffffffffff168173ffffffffffffffffffffffffffffffffffffffff167f8be0079c531659141344cd1fd0a4f28419497f9722a3daafe3b4186f6b6457e060405160405180910390a35050565b60008060019054906101000a900460ff1615611ba45760018260ff16148015611b5c5750611b5a30612317565b155b611b9b576040517f08c379a0000000000000000000000000000000000000000000000000000000008152600401611b9290613c09565b60405180910390fd5b60009050611c18565b8160ff1660008054906101000a900460ff1660ff1610611bf9576040517f08c379a0000000000000000000000000000000000000000000000000000000008152600401611bf090613c09565b60405180910390fd5b816000806101000a81548160ff021916908360ff160217905550600190505b919050565b600060019054906101000a900460ff16611c6c576040517f08c379a0000000000000000000000000000000000000000000000000000000008152600401611c6390613c9b565b60405180910390fd5b611c76828261233a565b5050565b600060019054906101000a900460ff16611cc9576040517f08c379a0000000000000000000000000000000000000000000000000000000008152600401611cc090613c9b565b60405180910390fd5b611cd16123ad565b565b600060019054906101000a900460ff16611d22576040517f08c379a0000000000000000000000000000000000000000000000000000000008152600401611d1990613c9b565b60405180910390fd5b565b8173ffffffffffffffffffffffffffffffffffffffff168373ffffffffffffffffffffffffffffffffffffffff1603611d92576040517f08c379a0000000000000000000000000000000000000000000000000000000008152600401611d8990613d07565b60405180910390fd5b80606a60008573ffffffffffffffffffffffffffffffffffffffff1673ffffffffffffffffffffffffffffffffffffffff16815260200190815260200160002060008473ffffffffffffffffffffffffffffffffffffffff1673ffffffffffffffffffffffffffffffffffffffff16815260200190815260200160002060006101000a81548160ff0219169083151502179055508173ffffffffffffffffffffffffffffffffffffffff168373ffffffffffffffffffffffffffffffffffffffff167f17307eab39ab6107e8899845ad3d59bd9653f200f220920489ca2b5937696c3183604051611e839190612943565b60405180910390a3505050565b611e9b8484846115bb565b611ea78484848461240e565b611ee6576040517f08c379a0000000000000000000000000000000000000000000000000000000008152600401611edd90613d99565b60405180910390fd5b50505050565b606060405180602001604052806000815250905090565b6060611f0e826113b0565b611f4d576040517f08c379a0000000000000000000000000000000000000000000000000000000008152600401611f4490613e2b565b60405180910390fd5b6000611f57611eec565b90506000815111611f775760405180602001604052806000815250611fa2565b80611f8184612595565b604051602001611f929291906136f5565b6040516020818303038152906040525b915050919050565b6001816000016000828254019250508190555050565b600081600001549050919050565b600073ffffffffffffffffffffffffffffffffffffffff168273ffffffffffffffffffffffffffffffffffffffff160361203d576040517f08c379a000000000000000000000000000000000000000000000000000000000815260040161203490613e97565b60405180910390fd5b612046816113b0565b15612086576040517f08c379a000000000000000000000000000000000000000000000000000000000815260040161207d90613f03565b60405180910390fd5b61209260008383612214565b6001606860008473ffffffffffffffffffffffffffffffffffffffff1673ffffffffffffffffffffffffffffffffffffffff16815260200190815260200160002060008282546120e291906139c4565b92505081905550816067600083815260200190815260200160002060006101000a81548173ffffffffffffffffffffffffffffffffffffffff021916908373ffffffffffffffffffffffffffffffffffffffff160217905550808273ffffffffffffffffffffffffffffffffffffffff16600073ffffffffffffffffffffffffffffffffffffffff167fddf252ad1be2c89b69c2b068fc378daa952ba7f163c4a11628f55a4df523b3ef60405160405180910390a46121a360008383612219565b5050565b6121b0826113b0565b6121ef576040517f08c379a00000000000000000000000000000000000000000000000000000000081526004016121e690613f95565b60405180910390fd5b8060976000848152602001908152602001600020908161220f9190614157565b505050565b505050565b505050565b6000819050919050565b6000819050919050565b61223b81612317565b61227a576040517f08c379a00000000000000000000000000000000000000000000000000000000081526004016122719061429b565b60405180910390fd5b806122a77f360894a13ba1a3210667c828492db98dca3e2076cc3735a920a3ca505d382bbc60001b61221e565b60000160006101000a81548173ffffffffffffffffffffffffffffffffffffffff021916908373ffffffffffffffffffffffffffffffffffffffff16021790555050565b6122f4836126f5565b6000825111806123015750805b15612312576123108383612744565b505b505050565b6000808273ffffffffffffffffffffffffffffffffffffffff163b119050919050565b600060019054906101000a900460ff16612389576040517f08c379a000000000000000000000000000000000000000000000000000000000815260040161238090613c9b565b60405180910390fd5b81606590816123989190614157565b5080606690816123a89190614157565b505050565b600060019054906101000a900460ff166123fc576040517f08c379a00000000000000000000000000000000000000000000000000000000081526004016123f390613c9b565b60405180910390fd5b61240c61240761141c565b611a65565b565b600061242f8473ffffffffffffffffffffffffffffffffffffffff16612317565b15612588578373ffffffffffffffffffffffffffffffffffffffff1663150b7a0261245861141c565b8786866040518563ffffffff1660e01b815260040161247a9493929190614310565b6020604051808303816000875af19250505080156124b657506040513d601f19601f820116820180604052508101906124b39190614371565b60015b612538573d80600081146124e6576040519150601f19603f3d011682016040523d82523d6000602084013e6124eb565b606091505b506000815103612530576040517f08c379a000000000000000000000000000000000000000000000000000000000815260040161252790613d99565b60405180910390fd5b805181602001fd5b63150b7a0260e01b7bffffffffffffffffffffffffffffffffffffffffffffffffffffffff1916817bffffffffffffffffffffffffffffffffffffffffffffffffffffffff19161491505061258d565b600190505b949350505050565b6060600082036125dc576040518060400160405280600181526020017f300000000000000000000000000000000000000000000000000000000000000081525090506126f0565b600082905060005b6000821461260e5780806125f79061439e565b915050600a826126079190614415565b91506125e4565b60008167ffffffffffffffff81111561262a57612629612bce565b5b6040519080825280601f01601f19166020018201604052801561265c5781602001600182028036833780820191505090505b5090505b600085146126e9576001826126759190613990565b9150600a856126849190614446565b603061269091906139c4565b60f81b8183815181106126a6576126a5614477565b5b60200101907effffffffffffffffffffffffffffffffffffffffffffffffffffffffffffff1916908160001a905350600a856126e29190614415565b9450612660565b8093505050505b919050565b6126fe81612232565b8073ffffffffffffffffffffffffffffffffffffffff167fbc7cd75a20ee27fd9adebab32041f755214dbc6bffa90cc0225b39da2e5c2d3b60405160405180910390a250565b606061274f83612317565b61278e576040517f08c379a000000000000000000000000000000000000000000000000000000000815260040161278590614518565b60405180910390fd5b6000808473ffffffffffffffffffffffffffffffffffffffff16846040516127b69190614574565b600060405180830381855af49150503d80600081146127f1576040519150601f19603f3d011682016040523d82523d6000602084013e6127f6565b606091505b509150915061281e828260405180606001604052806027815260200161458c60279139612828565b9250505092915050565b6060831561283857829050612888565b60008351111561284b5782518084602001fd5b816040517f08c379a000000000000000000000000000000000000000000000000000000000815260040161287f91906129f7565b60405180910390fd5b9392505050565b6000604051905090565b600080fd5b600080fd5b60007fffffffff0000000000000000000000000000000000000000000000000000000082169050919050565b6128d8816128a3565b81146128e357600080fd5b50565b6000813590506128f5816128cf565b92915050565b60006020828403121561291157612910612899565b5b600061291f848285016128e6565b91505092915050565b60008115159050919050565b61293d81612928565b82525050565b60006020820190506129586000830184612934565b92915050565b600081519050919050565b600082825260208201905092915050565b60005b8381101561299857808201518184015260208101905061297d565b838111156129a7576000848401525b50505050565b6000601f19601f8301169050919050565b60006129c98261295e565b6129d38185612969565b93506129e381856020860161297a565b6129ec816129ad565b840191505092915050565b60006020820190508181036000830152612a1181846129be565b905092915050565b6000819050919050565b612a2c81612a19565b8114612a3757600080fd5b50565b600081359050612a4981612a23565b92915050565b600060208284031215612a6557612a64612899565b5b6000612a7384828501612a3a565b91505092915050565b600073ffffffffffffffffffffffffffffffffffffffff82169050919050565b6000612aa782612a7c565b9050919050565b612ab781612a9c565b82525050565b6000602082019050612ad26000830184612aae565b92915050565b612ae181612a9c565b8114612aec57600080fd5b50565b600081359050612afe81612ad8565b92915050565b60008060408385031215612b1b57612b1a612899565b5b6000612b2985828601612aef565b9250506020612b3a85828601612a3a565b9150509250929050565b600080600060608486031215612b5d57612b5c612899565b5b6000612b6b86828701612aef565b9350506020612b7c86828701612aef565b9250506040612b8d86828701612a3a565b9150509250925092565b600060208284031215612bad57612bac612899565b5b6000612bbb84828501612aef565b91505092915050565b600080fd5b600080fd5b7f4e487b7100000000000000000000000000000000000000000000000000000000600052604160045260246000fd5b612c06826129ad565b810181811067ffffffffffffffff82111715612c2557612c24612bce565b5b80604052505050565b6000612c3861288f565b9050612c448282612bfd565b919050565b600067ffffffffffffffff821115612c6457612c63612bce565b5b612c6d826129ad565b9050602081019050919050565b82818337600083830152505050565b6000612c9c612c9784612c49565b612c2e565b905082815260208101848484011115612cb857612cb7612bc9565b5b612cc3848285612c7a565b509392505050565b600082601f830112612ce057612cdf612bc4565b5b8135612cf0848260208601612c89565b91505092915050565b60008060408385031215612d1057612d0f612899565b5b6000612d1e85828601612aef565b925050602083013567ffffffffffffffff811115612d3f57612d3e61289e565b5b612d4b85828601612ccb565b9150509250929050565b6000819050919050565b612d6881612d55565b82525050565b6000602082019050612d836000830184612d5f565b92915050565b612d9281612a19565b82525050565b6000602082019050612dad6000830184612d89565b92915050565b612dbc81612928565b8114612dc757600080fd5b50565b600081359050612dd981612db3565b92915050565b60008060408385031215612df657612df5612899565b5b6000612e0485828601612aef565b9250506020612e1585828601612dca565b9150509250929050565b60008060008060808587031215612e3957612e38612899565b5b6000612e4787828801612aef565b9450506020612e5887828801612aef565b9350506040612e6987828801612a3a565b925050606085013567ffffffffffffffff811115612e8a57612e8961289e565b5b612e9687828801612ccb565b91505092959194509250565b600067ffffffffffffffff821115612ebd57612ebc612bce565b5b612ec6826129ad565b9050602081019050919050565b6000612ee6612ee184612ea2565b612c2e565b905082815260208101848484011115612f0257612f01612bc9565b5b612f0d848285612c7a565b509392505050565b600082601f830112612f2a57612f29612bc4565b5b8135612f3a848260208601612ed3565b91505092915050565b600060208284031215612f5957612f58612899565b5b600082013567ffffffffffffffff811115612f7757612f7661289e565b5b612f8384828501612f15565b91505092915050565b60008060408385031215612fa357612fa2612899565b5b6000612fb185828601612aef565b9250506020612fc285828601612aef565b9150509250929050565b7f4e487b7100000000000000000000000000000000000000000000000000000000600052602260045260246000fd5b6000600282049050600182168061301357607f821691505b60208210810361302657613025612fcc565b5b50919050565b7f4552433732313a20617070726f76656420717565727920666f72206e6f6e657860008201527f697374656e7420746f6b656e0000000000000000000000000000000000000000602082015250565b6000613088602c83612969565b91506130938261302c565b604082019050919050565b600060208201905081810360008301526130b78161307b565b9050919050565b7f4552433732313a20617070726f76616c20746f2063757272656e74206f776e6560008201527f7200000000000000000000000000000000000000000000000000000000000000602082015250565b600061311a602183612969565b9150613125826130be565b604082019050919050565b600060208201905081810360008301526131498161310d565b9050919050565b7f4552433732313a20617070726f76652063616c6c6572206973206e6f74206f7760008201527f6e6572206e6f7220617070726f76656420666f7220616c6c0000000000000000602082015250565b60006131ac603883612969565b91506131b782613150565b604082019050919050565b600060208201905081810360008301526131db8161319f565b9050919050565b7f4552433732313a207472616e736665722063616c6c6572206973206e6f74206f60008201527f776e6572206e6f7220617070726f766564000000000000000000000000000000602082015250565b600061323e603183612969565b9150613249826131e2565b604082019050919050565b6000602082019050818103600083015261326d81613231565b9050919050565b7f46756e6374696f6e206d7573742062652063616c6c6564207468726f7567682060008201527f64656c656761746563616c6c0000000000000000000000000000000000000000602082015250565b60006132d0602c83612969565b91506132db82613274565b604082019050919050565b600060208201905081810360008301526132ff816132c3565b9050919050565b7f46756e6374696f6e206d7573742062652063616c6c6564207468726f7567682060008201527f6163746976652070726f78790000000000000000000000000000000000000000602082015250565b6000613362602c83612969565b915061336d82613306565b604082019050919050565b6000602082019050818103600083015261339181613355565b9050919050565b7f555550535570677261646561626c653a206d757374206e6f742062652063616c60008201527f6c6564207468726f7567682064656c656761746563616c6c0000000000000000602082015250565b60006133f4603883612969565b91506133ff82613398565b604082019050919050565b60006020820190508181036000830152613423816133e7565b9050919050565b7f4552433732313a206f776e657220717565727920666f72206e6f6e657869737460008201527f656e7420746f6b656e0000000000000000000000000000000000000000000000602082015250565b6000613486602983612969565b91506134918261342a565b604082019050919050565b600060208201905081810360008301526134b581613479565b9050919050565b7f4552433732313a2062616c616e636520717565727920666f7220746865207a6560008201527f726f206164647265737300000000000000000000000000000000000000000000602082015250565b6000613518602a83612969565b9150613523826134bc565b604082019050919050565b600060208201905081810360008301526135478161350b565b9050919050565b7f4f776e61626c653a2063616c6c6572206973206e6f7420746865206f776e6572600082015250565b6000613584602083612969565b915061358f8261354e565b602082019050919050565b600060208201905081810360008301526135b381613577565b9050919050565b6000819050919050565b600060ff82169050919050565b6000819050919050565b60006135f66135f16135ec846135ba565b6135d1565b6135c4565b9050919050565b613606816135db565b82525050565b600060208201905061362160008301846135fd565b92915050565b7f45524337323155524953746f726167653a2055524920717565727920666f722060008201527f6e6f6e6578697374656e7420746f6b656e000000000000000000000000000000602082015250565b6000613683603183612969565b915061368e82613627565b604082019050919050565b600060208201905081810360008301526136b281613676565b9050919050565b600081905092915050565b60006136cf8261295e565b6136d981856136b9565b93506136e981856020860161297a565b80840191505092915050565b600061370182856136c4565b915061370d82846136c4565b91508190509392505050565b7f4f776e61626c653a206e6577206f776e657220697320746865207a65726f206160008201527f6464726573730000000000000000000000000000000000000000000000000000602082015250565b6000613775602683612969565b915061378082613719565b604082019050919050565b600060208201905081810360008301526137a481613768565b9050919050565b7f4552433732313a206f70657261746f7220717565727920666f72206e6f6e657860008201527f697374656e7420746f6b656e0000000000000000000000000000000000000000602082015250565b6000613807602c83612969565b9150613812826137ab565b604082019050919050565b60006020820190508181036000830152613836816137fa565b9050919050565b7f4552433732313a207472616e736665722066726f6d20696e636f72726563742060008201527f6f776e6572000000000000000000000000000000000000000000000000000000602082015250565b6000613899602583612969565b91506138a48261383d565b604082019050919050565b600060208201905081810360008301526138c88161388c565b9050919050565b7f4552433732313a207472616e7366657220746f20746865207a65726f2061646460008201527f7265737300000000000000000000000000000000000000000000000000000000602082015250565b600061392b602483612969565b9150613936826138cf565b604082019050919050565b6000602082019050818103600083015261395a8161391e565b9050919050565b7f4e487b7100000000000000000000000000000000000000000000000000000000600052601160045260246000fd5b600061399b82612a19565b91506139a683612a19565b9250828210156139b9576139b8613961565b5b828203905092915050565b60006139cf82612a19565b91506139da83612a19565b9250827fffffffffffffffffffffffffffffffffffffffffffffffffffffffffffffffff03821115613a0f57613a0e613961565b5b828201905092915050565b613a2381612d55565b8114613a2e57600080fd5b50565b600081519050613a4081613a1a565b92915050565b600060208284031215613a5c57613a5b612899565b5b6000613a6a84828501613a31565b91505092915050565b7f45524331393637557067726164653a206e657720696d706c656d656e7461746960008201527f6f6e206973206e6f742055555053000000000000000000000000000000000000602082015250565b6000613acf602e83612969565b9150613ada82613a73565b604082019050919050565b60006020820190508181036000830152613afe81613ac2565b9050919050565b7f45524331393637557067726164653a20756e737570706f727465642070726f7860008201527f6961626c65555549440000000000000000000000000000000000000000000000602082015250565b6000613b61602983612969565b9150613b6c82613b05565b604082019050919050565b60006020820190508181036000830152613b9081613b54565b9050919050565b7f496e697469616c697a61626c653a20636f6e747261637420697320616c72656160008201527f647920696e697469616c697a6564000000000000000000000000000000000000602082015250565b6000613bf3602e83612969565b9150613bfe82613b97565b604082019050919050565b60006020820190508181036000830152613c2281613be6565b9050919050565b7f496e697469616c697a61626c653a20636f6e7472616374206973206e6f74206960008201527f6e697469616c697a696e67000000000000000000000000000000000000000000602082015250565b6000613c85602b83612969565b9150613c9082613c29565b604082019050919050565b60006020820190508181036000830152613cb481613c78565b9050919050565b7f4552433732313a20617070726f766520746f2063616c6c657200000000000000600082015250565b6000613cf1601983612969565b9150613cfc82613cbb565b602082019050919050565b60006020820190508181036000830152613d2081613ce4565b9050919050565b7f4552433732313a207472616e7366657220746f206e6f6e20455243373231526560008201527f63656976657220696d706c656d656e7465720000000000000000000000000000602082015250565b6000613d83603283612969565b9150613d8e82613d27565b604082019050919050565b60006020820190508181036000830152613db281613d76565b9050919050565b7f4552433732314d657461646174613a2055524920717565727920666f72206e6f60008201527f6e6578697374656e7420746f6b656e0000000000000000000000000000000000602082015250565b6000613e15602f83612969565b9150613e2082613db9565b604082019050919050565b60006020820190508181036000830152613e4481613e08565b9050919050565b7f4552433732313a206d696e7420746f20746865207a65726f2061646472657373600082015250565b6000613e81602083612969565b9150613e8c82613e4b565b602082019050919050565b60006020820190508181036000830152613eb081613e74565b9050919050565b7f4552433732313a20746f6b656e20616c7265616479206d696e74656400000000600082015250565b6000613eed601c83612969565b9150613ef882613eb7565b602082019050919050565b60006020820190508181036000830152613f1c81613ee0565b9050919050565b7f45524337323155524953746f726167653a2055524920736574206f66206e6f6e60008201527f6578697374656e7420746f6b656e000000000000000000000000000000000000602082015250565b6000613f7f602e83612969565b9150613f8a82613f23565b604082019050919050565b60006020820190508181036000830152613fae81613f72565b9050919050565b60008190508160005260206000209050919050565b60006020601f8301049050919050565b600082821b905092915050565b6000600883026140177fffffffffffffffffffffffffffffffffffffffffffffffffffffffffffffffff82613fda565b6140218683613fda565b95508019841693508086168417925050509392505050565b600061405461404f61404a84612a19565b6135d1565b612a19565b9050919050565b6000819050919050565b61406e83614039565b61408261407a8261405b565b848454613fe7565b825550505050565b600090565b61409761408a565b6140a2818484614065565b505050565b5b818110156140c6576140bb60008261408f565b6001810190506140a8565b5050565b601f82111561410b576140dc81613fb5565b6140e584613fca565b810160208510156140f4578190505b61410861410085613fca565b8301826140a7565b50505b505050565b600082821c905092915050565b600061412e60001984600802614110565b1980831691505092915050565b6000614147838361411d565b9150826002028217905092915050565b6141608261295e565b67ffffffffffffffff81111561417957614178612bce565b5b6141838254612ffb565b61418e8282856140ca565b600060209050601f8311600181146141c157600084156141af578287015190505b6141b9858261413b565b865550614221565b601f1984166141cf86613fb5565b60005b828110156141f7578489015182556001820191506020850194506020810190506141d2565b868310156142145784890151614210601f89168261411d565b8355505b6001600288020188555050505b505050505050565b7f455243313936373a206e657720696d706c656d656e746174696f6e206973206e60008201527f6f74206120636f6e747261637400000000000000000000000000000000000000602082015250565b6000614285602d83612969565b915061429082614229565b604082019050919050565b600060208201905081810360008301526142b481614278565b9050919050565b600081519050919050565b600082825260208201905092915050565b60006142e2826142bb565b6142ec81856142c6565b93506142fc81856020860161297a565b614305816129ad565b840191505092915050565b60006080820190506143256000830187612aae565b6143326020830186612aae565b61433f6040830185612d89565b818103606083015261435181846142d7565b905095945050505050565b60008151905061436b816128cf565b92915050565b60006020828403121561438757614386612899565b5b60006143958482850161435c565b91505092915050565b60006143a982612a19565b91507fffffffffffffffffffffffffffffffffffffffffffffffffffffffffffffffff82036143db576143da613961565b5b600182019050919050565b7f4e487b7100000000000000000000000000000000000000000000000000000000600052601260045260246000fd5b600061442082612a19565b915061442b83612a19565b92508261443b5761443a6143e6565b5b828204905092915050565b600061445182612a19565b915061445c83612a19565b92508261446c5761446b6143e6565b5b828206905092915050565b7f4e487b7100000000000000000000000000000000000000000000000000000000600052603260045260246000fd5b7f416464726573733a2064656c65676174652063616c6c20746f206e6f6e2d636f60008201527f6e74726163740000000000000000000000000000000000000000000000000000602082015250565b6000614502602683612969565b915061450d826144a6565b604082019050919050565b60006020820190508181036000830152614531816144f5565b9050919050565b600081905092915050565b600061454e826142bb565b6145588185614538565b935061456881856020860161297a565b80840191505092915050565b60006145808284614543565b91508190509291505056fe416464726573733a206c6f772d6c6576656c2064656c65676174652063616c6c206661696c6564a26469706673582212200723884b8c7acc8a6cfcfa92ef310abf1247209f24038b56e3cbb477bc4ea2fa64736f6c634300080f0033",
  "linkReferences": {},
  "deployedLinkReferences": {}
}