{
  "_format": "hh-sol-artifact-1",
  "contractName": "MYNFT",
  "sourceName": "contracts/MYNFT.sol",
  "abi": [
    {
      "inputs": [
        {
          "internalType": "address",
          "name": "have",
          "type": "address"
        },
        {
          "internalType": "address",
          "name": "want",
          "type": "address"
        }
      ],
      "name": "OnlyCoordinatorCanFulfill",
      "type": "error"
    },
    {
      "anonymous": false,
      "inputs": [
        {
          "indexed": false,
          "internalType": "address",
          "name": "previousAdmin",
          "type": "address"
        },
        {
          "indexed": false,
          "internalType": "address",
          "name": "newAdmin",
          "type": "address"
        }
      ],
      "name": "AdminChanged",
      "type": "event"
    },
    {
      "anonymous": false,
      "inputs": [
        {
          "indexed": true,
          "internalType": "address",
          "name": "owner",
          "type": "address"
        },
        {
          "indexed": true,
          "internalType": "address",
          "name": "approved",
          "type": "address"
        },
        {
          "indexed": true,
          "internalType": "uint256",
          "name": "tokenId",
          "type": "uint256"
        }
      ],
      "name": "Approval",
      "type": "event"
    },
    {
      "anonymous": false,
      "inputs": [
        {
          "indexed": true,
          "internalType": "address",
          "name": "owner",
          "type": "address"
        },
        {
          "indexed": true,
          "internalType": "address",
          "name": "operator",
          "type": "address"
        },
        {
          "indexed": false,
          "internalType": "bool",
          "name": "approved",
          "type": "bool"
        }
      ],
      "name": "ApprovalForAll",
      "type": "event"
    },
    {
      "anonymous": false,
      "inputs": [
        {
          "indexed": true,
          "internalType": "address",
          "name": "beacon",
          "type": "address"
        }
      ],
      "name": "BeaconUpgraded",
      "type": "event"
    },
    {
      "anonymous": false,
      "inputs": [
        {
          "indexed": true,
          "internalType": "uint256",
          "name": "requestId",
          "type": "uint256"
        },
        {
          "indexed": true,
          "internalType": "uint256",
          "name": "result",
          "type": "uint256"
        }
      ],
      "name": "DiceLanded",
      "type": "event"
    },
    {
      "anonymous": false,
      "inputs": [
        {
          "indexed": true,
          "internalType": "uint256",
          "name": "requestId",
          "type": "uint256"
        },
        {
          "indexed": true,
          "internalType": "address",
          "name": "roller",
          "type": "address"
        }
      ],
      "name": "DiceRolled",
      "type": "event"
    },
    {
      "anonymous": false,
      "inputs": [
        {
          "indexed": false,
          "internalType": "uint8",
          "name": "version",
          "type": "uint8"
        }
      ],
      "name": "Initialized",
      "type": "event"
    },
    {
      "anonymous": false,
      "inputs": [
        {
          "indexed": true,
          "internalType": "address",
          "name": "previousOwner",
          "type": "address"
        },
        {
          "indexed": true,
          "internalType": "address",
          "name": "newOwner",
          "type": "address"
        }
      ],
      "name": "OwnershipTransferred",
      "type": "event"
    },
    {
      "anonymous": false,
      "inputs": [
        {
          "indexed": true,
          "internalType": "address",
          "name": "from",
          "type": "address"
        },
        {
          "indexed": true,
          "internalType": "address",
          "name": "to",
          "type": "address"
        },
        {
          "indexed": true,
          "internalType": "uint256",
          "name": "tokenId",
          "type": "uint256"
        }
      ],
      "name": "Transfer",
      "type": "event"
    },
    {
      "anonymous": false,
      "inputs": [
        {
          "indexed": true,
          "internalType": "address",
          "name": "implementation",
          "type": "address"
        }
      ],
      "name": "Upgraded",
      "type": "event"
    },
    {
      "anonymous": false,
      "inputs": [
        {
          "indexed": false,
          "internalType": "uint256",
          "name": "output",
          "type": "uint256"
        }
      ],
      "name": "output",
      "type": "event"
    },
    {
      "inputs": [
        {
          "internalType": "address",
          "name": "_vrfCoordinator",
          "type": "address"
        }
      ],
      "name": "__initialize_init",
      "outputs": [],
      "stateMutability": "nonpayable",
      "type": "function"
    },
    {
      "inputs": [
        {
          "internalType": "address",
          "name": "to",
          "type": "address"
        },
        {
          "internalType": "uint256",
          "name": "tokenId",
          "type": "uint256"
        }
      ],
      "name": "approve",
      "outputs": [],
      "stateMutability": "nonpayable",
      "type": "function"
    },
    {
      "inputs": [
        {
          "internalType": "address",
          "name": "owner",
          "type": "address"
        }
      ],
      "name": "balanceOf",
      "outputs": [
        {
          "internalType": "uint256",
          "name": "",
          "type": "uint256"
        }
      ],
      "stateMutability": "view",
      "type": "function"
    },
    {
      "inputs": [
        {
          "internalType": "uint256",
          "name": "tokenId",
          "type": "uint256"
        }
      ],
      "name": "getApproved",
      "outputs": [
        {
          "internalType": "address",
          "name": "",
          "type": "address"
        }
      ],
      "stateMutability": "view",
      "type": "function"
    },
    {
      "inputs": [
        {
          "internalType": "address",
          "name": "player",
          "type": "address"
        }
      ],
      "name": "house",
      "outputs": [
        {
          "internalType": "string",
          "name": "",
          "type": "string"
        }
      ],
      "stateMutability": "view",
      "type": "function"
    },
    {
      "inputs": [],
      "name": "initialize",
      "outputs": [],
      "stateMutability": "nonpayable",
      "type": "function"
    },
    {
      "inputs": [
        {
          "internalType": "address",
          "name": "owner",
          "type": "address"
        },
        {
          "internalType": "address",
          "name": "operator",
          "type": "address"
        }
      ],
      "name": "isApprovedForAll",
      "outputs": [
        {
          "internalType": "bool",
          "name": "",
          "type": "bool"
        }
      ],
      "stateMutability": "view",
      "type": "function"
    },
    {
      "inputs": [
        {
          "internalType": "string",
          "name": "tokenURI",
          "type": "string"
        }
      ],
      "name": "mint",
      "outputs": [
        {
          "internalType": "uint256",
          "name": "",
          "type": "uint256"
        }
      ],
      "stateMutability": "nonpayable",
      "type": "function"
    },
    {
      "inputs": [],
      "name": "name",
      "outputs": [
        {
          "internalType": "string",
          "name": "",
          "type": "string"
        }
      ],
      "stateMutability": "view",
      "type": "function"
    },
    {
      "inputs": [],
      "name": "owner",
      "outputs": [
        {
          "internalType": "address",
          "name": "",
          "type": "address"
        }
      ],
      "stateMutability": "view",
      "type": "function"
    },
    {
      "inputs": [
        {
          "internalType": "uint256",
          "name": "tokenId",
          "type": "uint256"
        }
      ],
      "name": "ownerOf",
      "outputs": [
        {
          "internalType": "address",
          "name": "",
          "type": "address"
        }
      ],
      "stateMutability": "view",
      "type": "function"
    },
    {
      "inputs": [],
      "name": "proxiableUUID",
      "outputs": [
        {
          "internalType": "bytes32",
          "name": "",
          "type": "bytes32"
        }
      ],
      "stateMutability": "view",
      "type": "function"
    },
    {
      "inputs": [
        {
          "internalType": "uint256",
          "name": "requestId",
          "type": "uint256"
        },
        {
          "internalType": "uint256[]",
          "name": "randomWords",
          "type": "uint256[]"
        }
      ],
      "name": "rawFulfillRandomWords",
      "outputs": [],
      "stateMutability": "nonpayable",
      "type": "function"
    },
    {
      "inputs": [],
      "name": "renounceOwnership",
      "outputs": [],
      "stateMutability": "nonpayable",
      "type": "function"
    },
    {
      "inputs": [
        {
          "internalType": "address",
          "name": "player",
          "type": "address"
        }
      ],
      "name": "resettherandomvalue",
      "outputs": [],
      "stateMutability": "nonpayable",
      "type": "function"
    },
    {
      "inputs": [
        {
          "internalType": "address",
          "name": "roller",
          "type": "address"
        }
      ],
      "name": "rollDice",
      "outputs": [
        {
          "internalType": "uint256",
          "name": "requestId",
          "type": "uint256"
        }
      ],
      "stateMutability": "nonpayable",
      "type": "function"
    },
    {
      "inputs": [
        {
          "internalType": "uint256",
          "name": "",
          "type": "uint256"
        }
      ],
      "name": "s_randomWords",
      "outputs": [
        {
          "internalType": "uint256",
          "name": "",
          "type": "uint256"
        }
      ],
      "stateMutability": "view",
      "type": "function"
    },
    {
      "inputs": [],
      "name": "s_requestId",
      "outputs": [
        {
          "internalType": "uint256",
          "name": "",
          "type": "uint256"
        }
      ],
      "stateMutability": "view",
      "type": "function"
    },
    {
      "inputs": [
        {
          "internalType": "address",
          "name": "from",
          "type": "address"
        },
        {
          "internalType": "address",
          "name": "to",
          "type": "address"
        },
        {
          "internalType": "uint256",
          "name": "tokenId",
          "type": "uint256"
        }
      ],
      "name": "safeTransferFrom",
      "outputs": [],
      "stateMutability": "nonpayable",
      "type": "function"
    },
    {
      "inputs": [
        {
          "internalType": "address",
          "name": "from",
          "type": "address"
        },
        {
          "internalType": "address",
          "name": "to",
          "type": "address"
        },
        {
          "internalType": "uint256",
          "name": "tokenId",
          "type": "uint256"
        },
        {
          "internalType": "bytes",
          "name": "_data",
          "type": "bytes"
        }
      ],
      "name": "safeTransferFrom",
      "outputs": [],
      "stateMutability": "nonpayable",
      "type": "function"
    },
    {
      "inputs": [
        {
          "internalType": "address",
          "name": "operator",
          "type": "address"
        },
        {
          "internalType": "bool",
          "name": "approved",
          "type": "bool"
        }
      ],
      "name": "setApprovalForAll",
      "outputs": [],
      "stateMutability": "nonpayable",
      "type": "function"
    },
    {
      "inputs": [
        {
          "internalType": "bytes4",
          "name": "interfaceId",
          "type": "bytes4"
        }
      ],
      "name": "supportsInterface",
      "outputs": [
        {
          "internalType": "bool",
          "name": "",
          "type": "bool"
        }
      ],
      "stateMutability": "view",
      "type": "function"
    },
    {
      "inputs": [],
      "name": "symbol",
      "outputs": [
        {
          "internalType": "string",
          "name": "",
          "type": "string"
        }
      ],
      "stateMutability": "view",
      "type": "function"
    },
    {
      "inputs": [
        {
          "internalType": "uint256",
          "name": "tokenId",
          "type": "uint256"
        }
      ],
      "name": "tokenURI",
      "outputs": [
        {
          "internalType": "string",
          "name": "",
          "type": "string"
        }
      ],
      "stateMutability": "view",
      "type": "function"
    },
    {
      "inputs": [
        {
          "internalType": "address",
          "name": "from",
          "type": "address"
        },
        {
          "internalType": "address",
          "name": "to",
          "type": "address"
        },
        {
          "internalType": "uint256",
          "name": "tokenId",
          "type": "uint256"
        }
      ],
      "name": "transferFrom",
      "outputs": [],
      "stateMutability": "nonpayable",
      "type": "function"
    },
    {
      "inputs": [
        {
          "internalType": "address",
          "name": "newOwner",
          "type": "address"
        }
      ],
      "name": "transferOwnership",
      "outputs": [],
      "stateMutability": "nonpayable",
      "type": "function"
    },
    {
      "inputs": [
        {
          "internalType": "address",
          "name": "newImplementation",
          "type": "address"
        }
      ],
      "name": "upgradeTo",
      "outputs": [],
      "stateMutability": "nonpayable",
      "type": "function"
    },
    {
      "inputs": [
        {
          "internalType": "address",
          "name": "newImplementation",
          "type": "address"
        },
        {
          "internalType": "bytes",
          "name": "data",
          "type": "bytes"
        }
      ],
      "name": "upgradeToAndCall",
      "outputs": [],
      "stateMutability": "payable",
      "type": "function"
    }
  ],
  "bytecode": "0x60a06040523073ffffffffffffffffffffffffffffffffffffffff1660809073ffffffffffffffffffffffffffffffffffffffff1681525034801561004357600080fd5b5060805161546861007b60003960008181610b9f01528181610c2d01528181610d4701528181610dd50152610e8501526154686000f3fe6080604052600436106101b75760003560e01c8063715018a6116100ec578063c87b56dd1161008a578063e89e106a11610064578063e89e106a1461060b578063e985e9c514610636578063f2fde38b14610673578063f6eaffc81461069c576101b7565b8063c87b56dd14610554578063d85d3d2714610591578063dd02d9e5146105ce576101b7565b806395d89b41116100c657806395d89b411461049a578063a22cb465146104c5578063b1cad5e3146104ee578063b88d4fde1461052b576101b7565b8063715018a6146104415780638129fc1c146104585780638da5cb5b1461046f576101b7565b80632d90ef14116101595780634f1ef286116101335780634f1ef2861461038057806352d1902d1461039c5780636352211e146103c757806370a0823114610404576101b7565b80632d90ef14146103055780633659cfe61461032e57806342842e0e14610357576101b7565b8063095ea7b311610195578063095ea7b3146102615780631fe543e31461028a57806322fa5aa2146102b357806323b872dd146102dc576101b7565b806301ffc9a7146101bc57806306fdde03146101f9578063081812fc14610224575b600080fd5b3480156101c857600080fd5b506101e360048036038101906101de9190613399565b6106d9565b6040516101f091906133e1565b60405180910390f35b34801561020557600080fd5b5061020e6107bb565b60405161021b9190613495565b60405180910390f35b34801561023057600080fd5b5061024b600480360381019061024691906134ed565b61084d565b604051610258919061355b565b60405180910390f35b34801561026d57600080fd5b50610288600480360381019061028391906135a2565b6108d2565b005b34801561029657600080fd5b506102b160048036038101906102ac919061372a565b6109e9565b005b3480156102bf57600080fd5b506102da60048036038101906102d59190613786565b610aaf565b005b3480156102e857600080fd5b5061030360048036038101906102fe91906137b3565b610af8565b005b34801561031157600080fd5b5061032c60048036038101906103279190613786565b610b58565b005b34801561033a57600080fd5b5061035560048036038101906103509190613786565b610b9d565b005b34801561036357600080fd5b5061037e600480360381019061037991906137b3565b610d25565b005b61039a600480360381019061039591906138bb565b610d45565b005b3480156103a857600080fd5b506103b1610e81565b6040516103be9190613930565b60405180910390f35b3480156103d357600080fd5b506103ee60048036038101906103e991906134ed565b610f3a565b6040516103fb919061355b565b60405180910390f35b34801561041057600080fd5b5061042b60048036038101906104269190613786565b610feb565b604051610438919061395a565b60405180910390f35b34801561044d57600080fd5b506104566110a2565b005b34801561046457600080fd5b5061046d61112a565b005b34801561047b57600080fd5b506104846113df565b604051610491919061355b565b60405180910390f35b3480156104a657600080fd5b506104af61140a565b6040516104bc9190613495565b60405180910390f35b3480156104d157600080fd5b506104ec60048036038101906104e791906139a1565b61149c565b005b3480156104fa57600080fd5b5061051560048036038101906105109190613786565b6114b2565b6040516105229190613495565b60405180910390f35b34801561053757600080fd5b50610552600480360381019061054d91906139e1565b611610565b005b34801561056057600080fd5b5061057b600480360381019061057691906134ed565b611672565b6040516105889190613495565b60405180910390f35b34801561059d57600080fd5b506105b860048036038101906105b39190613b05565b6117c3565b6040516105c5919061395a565b60405180910390f35b3480156105da57600080fd5b506105f560048036038101906105f09190613786565b611803565b604051610602919061395a565b60405180910390f35b34801561061757600080fd5b506106206119e1565b60405161062d919061395a565b60405180910390f35b34801561064257600080fd5b5061065d60048036038101906106589190613b4e565b6119e8565b60405161066a91906133e1565b60405180910390f35b34801561067f57600080fd5b5061069a60048036038101906106959190613786565b611a7c565b005b3480156106a857600080fd5b506106c360048036038101906106be91906134ed565b611b73565b6040516106d0919061395a565b60405180910390f35b60007f80ac58cd000000000000000000000000000000000000000000000000000000007bffffffffffffffffffffffffffffffffffffffffffffffffffffffff1916827bffffffffffffffffffffffffffffffffffffffffffffffffffffffff191614806107a457507f5b5e139f000000000000000000000000000000000000000000000000000000007bffffffffffffffffffffffffffffffffffffffffffffffffffffffff1916827bffffffffffffffffffffffffffffffffffffffffffffffffffffffff1916145b806107b457506107b382611b98565b5b9050919050565b6060606580546107ca90613bbd565b80601f01602080910402602001604051908101604052809291908181526020018280546107f690613bbd565b80156108435780601f1061081857610100808354040283529160200191610843565b820191906000526020600020905b81548152906001019060200180831161082657829003601f168201915b5050505050905090565b600061085882611c02565b610897576040517f08c379a000000000000000000000000000000000000000000000000000000000815260040161088e90613c60565b60405180910390fd5b6069600083815260200190815260200160002060009054906101000a900473ffffffffffffffffffffffffffffffffffffffff169050919050565b60006108dd82610f3a565b90508073ffffffffffffffffffffffffffffffffffffffff168373ffffffffffffffffffffffffffffffffffffffff160361094d576040517f08c379a000000000000000000000000000000000000000000000000000000000815260040161094490613cf2565b60405180910390fd5b8073ffffffffffffffffffffffffffffffffffffffff1661096c611c6e565b73ffffffffffffffffffffffffffffffffffffffff16148061099b575061099a81610995611c6e565b6119e8565b5b6109da576040517f08c379a00000000000000000000000000000000000000000000000000000000081526004016109d190613d84565b60405180910390fd5b6109e48383611c76565b505050565b61015f60009054906101000a900473ffffffffffffffffffffffffffffffffffffffff1673ffffffffffffffffffffffffffffffffffffffff163373ffffffffffffffffffffffffffffffffffffffff1614610aa1573361015f60009054906101000a900473ffffffffffffffffffffffffffffffffffffffff166040517f1cf993f4000000000000000000000000000000000000000000000000000000008152600401610a98929190613da4565b60405180910390fd5b610aab8282611d2f565b5050565b600061016460008373ffffffffffffffffffffffffffffffffffffffff1673ffffffffffffffffffffffffffffffffffffffff1681526020019081526020016000208190555050565b610b09610b03611c6e565b82611e13565b610b48576040517f08c379a0000000000000000000000000000000000000000000000000000000008152600401610b3f90613e3f565b60405180910390fd5b610b53838383611ef1565b505050565b8061015f60006101000a81548173ffffffffffffffffffffffffffffffffffffffff021916908373ffffffffffffffffffffffffffffffffffffffff16021790555050565b7f000000000000000000000000000000000000000000000000000000000000000073ffffffffffffffffffffffffffffffffffffffff163073ffffffffffffffffffffffffffffffffffffffff1603610c2b576040517f08c379a0000000000000000000000000000000000000000000000000000000008152600401610c2290613ed1565b60405180910390fd5b7f000000000000000000000000000000000000000000000000000000000000000073ffffffffffffffffffffffffffffffffffffffff16610c6a612157565b73ffffffffffffffffffffffffffffffffffffffff1614610cc0576040517f08c379a0000000000000000000000000000000000000000000000000000000008152600401610cb790613f63565b60405180910390fd5b610cc9816121ae565b610d2281600067ffffffffffffffff811115610ce857610ce76135e7565b5b6040519080825280601f01601f191660200182016040528015610d1a5781602001600182028036833780820191505090505b50600061222d565b50565b610d4083838360405180602001604052806000815250611610565b505050565b7f000000000000000000000000000000000000000000000000000000000000000073ffffffffffffffffffffffffffffffffffffffff163073ffffffffffffffffffffffffffffffffffffffff1603610dd3576040517f08c379a0000000000000000000000000000000000000000000000000000000008152600401610dca90613ed1565b60405180910390fd5b7f000000000000000000000000000000000000000000000000000000000000000073ffffffffffffffffffffffffffffffffffffffff16610e12612157565b73ffffffffffffffffffffffffffffffffffffffff1614610e68576040517f08c379a0000000000000000000000000000000000000000000000000000000008152600401610e5f90613f63565b60405180910390fd5b610e71826121ae565b610e7d8282600161222d565b5050565b60007f000000000000000000000000000000000000000000000000000000000000000073ffffffffffffffffffffffffffffffffffffffff163073ffffffffffffffffffffffffffffffffffffffff1614610f11576040517f08c379a0000000000000000000000000000000000000000000000000000000008152600401610f0890613ff5565b60405180910390fd5b7f360894a13ba1a3210667c828492db98dca3e2076cc3735a920a3ca505d382bbc60001b905090565b6000806067600084815260200190815260200160002060009054906101000a900473ffffffffffffffffffffffffffffffffffffffff169050600073ffffffffffffffffffffffffffffffffffffffff168173ffffffffffffffffffffffffffffffffffffffff1603610fe2576040517f08c379a0000000000000000000000000000000000000000000000000000000008152600401610fd990614087565b60405180910390fd5b80915050919050565b60008073ffffffffffffffffffffffffffffffffffffffff168273ffffffffffffffffffffffffffffffffffffffff160361105b576040517f08c379a000000000000000000000000000000000000000000000000000000000815260040161105290614119565b60405180910390fd5b606860008373ffffffffffffffffffffffffffffffffffffffff1673ffffffffffffffffffffffffffffffffffffffff168152602001908152602001600020549050919050565b6110aa611c6e565b73ffffffffffffffffffffffffffffffffffffffff166110c86113df565b73ffffffffffffffffffffffffffffffffffffffff161461111e576040517f08c379a000000000000000000000000000000000000000000000000000000000815260040161111590614185565b60405180910390fd5b611128600061239b565b565b60006111366001612463565b9050801561115a576001600060016101000a81548160ff0219169083151502179055505b737a1bac17ccc5b313516c5e16fb24f7659aa5ebed61016260006101000a81548173ffffffffffffffffffffffffffffffffffffffff021916908373ffffffffffffffffffffffffffffffffffffffff1602179055507f4b09e658ed251bcafeebbc69400383d49f344ace09b9576fe248bb02c003fe9f60001b6101658190555062061a8061016660006101000a81548163ffffffff021916908363ffffffff160217905550600361016660046101000a81548161ffff021916908361ffff160217905550600161016660066101000a81548163ffffffff021916908363ffffffff1602179055506102e061016160006101000a81548167ffffffffffffffff021916908367ffffffffffffffff1602179055506112e26040518060400160405280600b81526020017f506f6b656d6f6e5f4e46540000000000000000000000000000000000000000008152506040518060400160405280600581526020017f504b4e4654000000000000000000000000000000000000000000000000000000815250612553565b61130e61016260009054906101000a900473ffffffffffffffffffffffffffffffffffffffff16610b58565b6113166125b0565b61131e612609565b61016260009054906101000a900473ffffffffffffffffffffffffffffffffffffffff1661016160086101000a81548173ffffffffffffffffffffffffffffffffffffffff021916908373ffffffffffffffffffffffffffffffffffffffff16021790555080156113dc5760008060016101000a81548160ff0219169083151502179055507f7f26b83ff96e1f2b6a682f133852f6798a09c465da95921460cefb384740249860016040516113d391906141f7565b60405180910390a15b50565b600061012d60009054906101000a900473ffffffffffffffffffffffffffffffffffffffff16905090565b60606066805461141990613bbd565b80601f016020809104026020016040519081016040528092919081815260200182805461144590613bbd565b80156114925780601f1061146757610100808354040283529160200191611492565b820191906000526020600020905b81548152906001019060200180831161147557829003601f168201915b5050505050905090565b6114ae6114a7611c6e565b838361265a565b5050565b6060600061016460008473ffffffffffffffffffffffffffffffffffffffff1673ffffffffffffffffffffffffffffffffffffffff1681526020019081526020016000205403611537576040517f08c379a000000000000000000000000000000000000000000000000000000000815260040161152e9061425e565b60405180910390fd5b602a61016460008473ffffffffffffffffffffffffffffffffffffffff1673ffffffffffffffffffffffffffffffffffffffff16815260200190815260200160002054036115ba576040517f08c379a00000000000000000000000000000000000000000000000000000000081526004016115b1906142ca565b60405180910390fd5b600061016460008473ffffffffffffffffffffffffffffffffffffffff1673ffffffffffffffffffffffffffffffffffffffff168152602001908152602001600020549050611608816127c6565b915050919050565b61162161161b611c6e565b83611e13565b611660576040517f08c379a000000000000000000000000000000000000000000000000000000000815260040161165790613e3f565b60405180910390fd5b61166c8484848461292e565b50505050565b606061167d82611c02565b6116bc576040517f08c379a00000000000000000000000000000000000000000000000000000000081526004016116b39061435c565b60405180910390fd5b60006097600084815260200190815260200160002080546116dc90613bbd565b80601f016020809104026020016040519081016040528092919081815260200182805461170890613bbd565b80156117555780601f1061172a57610100808354040283529160200191611755565b820191906000526020600020905b81548152906001019060200180831161173857829003601f168201915b50505050509050600061176661298a565b9050600081510361177b5781925050506117be565b6000825111156117b05780826040516020016117989291906143b8565b604051602081830303815290604052925050506117be565b6117b9846129a1565b925050505b919050565b60006117d0610160612a48565b60006117dd610160612a5e565b90506117f06117ea611c6e565b82612a6c565b6117fa8184612c45565b80915050919050565b600061016160089054906101000a900473ffffffffffffffffffffffffffffffffffffffff1673ffffffffffffffffffffffffffffffffffffffff16635d3b1d306101655461016160009054906101000a900467ffffffffffffffff1661016660049054906101000a900461ffff1661016660009054906101000a900463ffffffff1661016660069054906101000a900463ffffffff166040518663ffffffff1660e01b81526004016118ba95949392919061443b565b6020604051808303816000875af11580156118d9573d6000803e3d6000fd5b505050506040513d601f19601f820116820180604052508101906118fd91906144a3565b905081610163600083815260200190815260200160002060006101000a81548173ffffffffffffffffffffffffffffffffffffffff021916908373ffffffffffffffffffffffffffffffffffffffff160217905550602a61016460008473ffffffffffffffffffffffffffffffffffffffff1673ffffffffffffffffffffffffffffffffffffffff168152602001908152602001600020819055508173ffffffffffffffffffffffffffffffffffffffff16817f3e7fdeab84c01ce5308321caa0b460e1c4ec3c7099223d79634d9a71d99932e360405160405180910390a3919050565b6101685481565b6000606a60008473ffffffffffffffffffffffffffffffffffffffff1673ffffffffffffffffffffffffffffffffffffffff16815260200190815260200160002060008373ffffffffffffffffffffffffffffffffffffffff1673ffffffffffffffffffffffffffffffffffffffff16815260200190815260200160002060009054906101000a900460ff16905092915050565b611a84611c6e565b73ffffffffffffffffffffffffffffffffffffffff16611aa26113df565b73ffffffffffffffffffffffffffffffffffffffff1614611af8576040517f08c379a0000000000000000000000000000000000000000000000000000000008152600401611aef90614185565b60405180910390fd5b600073ffffffffffffffffffffffffffffffffffffffff168173ffffffffffffffffffffffffffffffffffffffff1603611b67576040517f08c379a0000000000000000000000000000000000000000000000000000000008152600401611b5e90614542565b60405180910390fd5b611b708161239b565b50565b6101678181548110611b8457600080fd5b906000526020600020016000915090505481565b60007f01ffc9a7000000000000000000000000000000000000000000000000000000007bffffffffffffffffffffffffffffffffffffffffffffffffffffffff1916827bffffffffffffffffffffffffffffffffffffffffffffffffffffffff1916149050919050565b60008073ffffffffffffffffffffffffffffffffffffffff166067600084815260200190815260200160002060009054906101000a900473ffffffffffffffffffffffffffffffffffffffff1673ffffffffffffffffffffffffffffffffffffffff1614159050919050565b600033905090565b816069600083815260200190815260200160002060006101000a81548173ffffffffffffffffffffffffffffffffffffffff021916908373ffffffffffffffffffffffffffffffffffffffff160217905550808273ffffffffffffffffffffffffffffffffffffffff16611ce983610f3a565b73ffffffffffffffffffffffffffffffffffffffff167f8c5be1e5ebec7d5bd14f71427d1e84f3dd0314c0f7b2291e5b200ac8c7c3b92560405160405180910390a45050565b60006001600a83600081518110611d4957611d48614562565b5b6020026020010151611d5b91906145c0565b611d659190614620565b9050806101646000610163600087815260200190815260200160002060009054906101000a900473ffffffffffffffffffffffffffffffffffffffff1673ffffffffffffffffffffffffffffffffffffffff1673ffffffffffffffffffffffffffffffffffffffff1681526020019081526020016000208190555080837f54d97c1f7e5abad75bd421455cd4dd296852a52e1ea721f2cdb66d06fa2082a960405160405180910390a3505050565b6000611e1e82611c02565b611e5d576040517f08c379a0000000000000000000000000000000000000000000000000000000008152600401611e54906146e8565b60405180910390fd5b6000611e6883610f3a565b90508073ffffffffffffffffffffffffffffffffffffffff168473ffffffffffffffffffffffffffffffffffffffff161480611eaa5750611ea981856119e8565b5b80611ee857508373ffffffffffffffffffffffffffffffffffffffff16611ed08461084d565b73ffffffffffffffffffffffffffffffffffffffff16145b91505092915050565b8273ffffffffffffffffffffffffffffffffffffffff16611f1182610f3a565b73ffffffffffffffffffffffffffffffffffffffff1614611f67576040517f08c379a0000000000000000000000000000000000000000000000000000000008152600401611f5e9061477a565b60405180910390fd5b600073ffffffffffffffffffffffffffffffffffffffff168273ffffffffffffffffffffffffffffffffffffffff1603611fd6576040517f08c379a0000000000000000000000000000000000000000000000000000000008152600401611fcd9061480c565b60405180910390fd5b611fe1838383612cb2565b611fec600082611c76565b6001606860008573ffffffffffffffffffffffffffffffffffffffff1673ffffffffffffffffffffffffffffffffffffffff168152602001908152602001600020600082825461203c919061482c565b925050819055506001606860008473ffffffffffffffffffffffffffffffffffffffff1673ffffffffffffffffffffffffffffffffffffffff16815260200190815260200160002060008282546120939190614620565b92505081905550816067600083815260200190815260200160002060006101000a81548173ffffffffffffffffffffffffffffffffffffffff021916908373ffffffffffffffffffffffffffffffffffffffff160217905550808273ffffffffffffffffffffffffffffffffffffffff168473ffffffffffffffffffffffffffffffffffffffff167fddf252ad1be2c89b69c2b068fc378daa952ba7f163c4a11628f55a4df523b3ef60405160405180910390a4612152838383612cb7565b505050565b60006121857f360894a13ba1a3210667c828492db98dca3e2076cc3735a920a3ca505d382bbc60001b612cbc565b60000160009054906101000a900473ffffffffffffffffffffffffffffffffffffffff16905090565b6121b6611c6e565b73ffffffffffffffffffffffffffffffffffffffff166121d46113df565b73ffffffffffffffffffffffffffffffffffffffff161461222a576040517f08c379a000000000000000000000000000000000000000000000000000000000815260040161222190614185565b60405180910390fd5b50565b6122597f4910fdfa16fed3260ed0e7147f7cc6da11a60208b5b9406d12a635614ffd914360001b612cc6565b60000160009054906101000a900460ff161561227d5761227883612cd0565b612396565b8273ffffffffffffffffffffffffffffffffffffffff166352d1902d6040518163ffffffff1660e01b8152600401602060405180830381865afa9250505080156122e557506040513d601f19601f820116820180604052508101906122e2919061488c565b60015b612324576040517f08c379a000000000000000000000000000000000000000000000000000000000815260040161231b9061492b565b60405180910390fd5b7f360894a13ba1a3210667c828492db98dca3e2076cc3735a920a3ca505d382bbc60001b8114612389576040517f08c379a0000000000000000000000000000000000000000000000000000000008152600401612380906149bd565b60405180910390fd5b50612395838383612d89565b5b505050565b600061012d60009054906101000a900473ffffffffffffffffffffffffffffffffffffffff1690508161012d60006101000a81548173ffffffffffffffffffffffffffffffffffffffff021916908373ffffffffffffffffffffffffffffffffffffffff1602179055508173ffffffffffffffffffffffffffffffffffffffff168173ffffffffffffffffffffffffffffffffffffffff167f8be0079c531659141344cd1fd0a4f28419497f9722a3daafe3b4186f6b6457e060405160405180910390a35050565b60008060019054906101000a900460ff16156124da5760018260ff16148015612492575061249030612db5565b155b6124d1576040517f08c379a00000000000000000000000000000000000000000000000000000000081526004016124c890614a4f565b60405180910390fd5b6000905061254e565b8160ff1660008054906101000a900460ff1660ff161061252f576040517f08c379a000000000000000000000000000000000000000000000000000000000815260040161252690614a4f565b60405180910390fd5b816000806101000a81548160ff021916908360ff160217905550600190505b919050565b600060019054906101000a900460ff166125a2576040517f08c379a000000000000000000000000000000000000000000000000000000000815260040161259990614ae1565b60405180910390fd5b6125ac8282612dd8565b5050565b600060019054906101000a900460ff166125ff576040517f08c379a00000000000000000000000000000000000000000000000000000000081526004016125f690614ae1565b60405180910390fd5b612607612e4b565b565b600060019054906101000a900460ff16612658576040517f08c379a000000000000000000000000000000000000000000000000000000000815260040161264f90614ae1565b60405180910390fd5b565b8173ffffffffffffffffffffffffffffffffffffffff168373ffffffffffffffffffffffffffffffffffffffff16036126c8576040517f08c379a00000000000000000000000000000000000000000000000000000000081526004016126bf90614b4d565b60405180910390fd5b80606a60008573ffffffffffffffffffffffffffffffffffffffff1673ffffffffffffffffffffffffffffffffffffffff16815260200190815260200160002060008473ffffffffffffffffffffffffffffffffffffffff1673ffffffffffffffffffffffffffffffffffffffff16815260200190815260200160002060006101000a81548160ff0219169083151502179055508173ffffffffffffffffffffffffffffffffffffffff168373ffffffffffffffffffffffffffffffffffffffff167f17307eab39ab6107e8899845ad3d59bd9653f200f220920489ca2b5937696c31836040516127b991906133e1565b60405180910390a3505050565b606060006040518061014001604052806040518060800160405280604381526020016153f06043913981526020016040518060800160405280604381526020016153866043913981526020016040518060800160405280604381526020016153436043913981526020016040518060800160405280604381526020016153f06043913981526020016040518060800160405280604381526020016153866043913981526020016040518060800160405280604381526020016153436043913981526020016040518060800160405280604381526020016153f06043913981526020016040518060800160405280604381526020016153866043913981526020016040518060800160405280604381526020016153436043913981526020016040518060800160405280604381526020016153f060439139815250905080600184612910919061482c565b600a811061292157612920614562565b5b6020020151915050919050565b612939848484611ef1565b61294584848484612eac565b612984576040517f08c379a000000000000000000000000000000000000000000000000000000000815260040161297b90614bdf565b60405180910390fd5b50505050565b606060405180602001604052806000815250905090565b60606129ac82611c02565b6129eb576040517f08c379a00000000000000000000000000000000000000000000000000000000081526004016129e290614c71565b60405180910390fd5b60006129f561298a565b90506000815111612a155760405180602001604052806000815250612a40565b80612a1f84613033565b604051602001612a309291906143b8565b6040516020818303038152906040525b915050919050565b6001816000016000828254019250508190555050565b600081600001549050919050565b600073ffffffffffffffffffffffffffffffffffffffff168273ffffffffffffffffffffffffffffffffffffffff1603612adb576040517f08c379a0000000000000000000000000000000000000000000000000000000008152600401612ad290614cdd565b60405180910390fd5b612ae481611c02565b15612b24576040517f08c379a0000000000000000000000000000000000000000000000000000000008152600401612b1b90614d49565b60405180910390fd5b612b3060008383612cb2565b6001606860008473ffffffffffffffffffffffffffffffffffffffff1673ffffffffffffffffffffffffffffffffffffffff1681526020019081526020016000206000828254612b809190614620565b92505081905550816067600083815260200190815260200160002060006101000a81548173ffffffffffffffffffffffffffffffffffffffff021916908373ffffffffffffffffffffffffffffffffffffffff160217905550808273ffffffffffffffffffffffffffffffffffffffff16600073ffffffffffffffffffffffffffffffffffffffff167fddf252ad1be2c89b69c2b068fc378daa952ba7f163c4a11628f55a4df523b3ef60405160405180910390a4612c4160008383612cb7565b5050565b612c4e82611c02565b612c8d576040517f08c379a0000000000000000000000000000000000000000000000000000000008152600401612c8490614ddb565b60405180910390fd5b80609760008481526020019081526020016000209081612cad9190614f9d565b505050565b505050565b505050565b6000819050919050565b6000819050919050565b612cd981612db5565b612d18576040517f08c379a0000000000000000000000000000000000000000000000000000000008152600401612d0f906150e1565b60405180910390fd5b80612d457f360894a13ba1a3210667c828492db98dca3e2076cc3735a920a3ca505d382bbc60001b612cbc565b60000160006101000a81548173ffffffffffffffffffffffffffffffffffffffff021916908373ffffffffffffffffffffffffffffffffffffffff16021790555050565b612d9283613193565b600082511180612d9f5750805b15612db057612dae83836131e2565b505b505050565b6000808273ffffffffffffffffffffffffffffffffffffffff163b119050919050565b600060019054906101000a900460ff16612e27576040517f08c379a0000000000000000000000000000000000000000000000000000000008152600401612e1e90614ae1565b60405180910390fd5b8160659081612e369190614f9d565b508060669081612e469190614f9d565b505050565b600060019054906101000a900460ff16612e9a576040517f08c379a0000000000000000000000000000000000000000000000000000000008152600401612e9190614ae1565b60405180910390fd5b612eaa612ea5611c6e565b61239b565b565b6000612ecd8473ffffffffffffffffffffffffffffffffffffffff16612db5565b15613026578373ffffffffffffffffffffffffffffffffffffffff1663150b7a02612ef6611c6e565b8786866040518563ffffffff1660e01b8152600401612f189493929190615156565b6020604051808303816000875af1925050508015612f5457506040513d601f19601f82011682018060405250810190612f5191906151b7565b60015b612fd6573d8060008114612f84576040519150601f19603f3d011682016040523d82523d6000602084013e612f89565b606091505b506000815103612fce576040517f08c379a0000000000000000000000000000000000000000000000000000000008152600401612fc590614bdf565b60405180910390fd5b805181602001fd5b63150b7a0260e01b7bffffffffffffffffffffffffffffffffffffffffffffffffffffffff1916817bffffffffffffffffffffffffffffffffffffffffffffffffffffffff19161491505061302b565b600190505b949350505050565b60606000820361307a576040518060400160405280600181526020017f3000000000000000000000000000000000000000000000000000000000000000815250905061318e565b600082905060005b600082146130ac578080613095906151e4565b915050600a826130a5919061522c565b9150613082565b60008167ffffffffffffffff8111156130c8576130c76135e7565b5b6040519080825280601f01601f1916602001820160405280156130fa5781602001600182028036833780820191505090505b5090505b6000851461318757600182613113919061482c565b9150600a8561312291906145c0565b603061312e9190614620565b60f81b81838151811061314457613143614562565b5b60200101907effffffffffffffffffffffffffffffffffffffffffffffffffffffffffffff1916908160001a905350600a85613180919061522c565b94506130fe565b8093505050505b919050565b61319c81612cd0565b8073ffffffffffffffffffffffffffffffffffffffff167fbc7cd75a20ee27fd9adebab32041f755214dbc6bffa90cc0225b39da2e5c2d3b60405160405180910390a250565b60606131ed83612db5565b61322c576040517f08c379a0000000000000000000000000000000000000000000000000000000008152600401613223906152cf565b60405180910390fd5b6000808473ffffffffffffffffffffffffffffffffffffffff1684604051613254919061532b565b600060405180830381855af49150503d806000811461328f576040519150601f19603f3d011682016040523d82523d6000602084013e613294565b606091505b50915091506132bc82826040518060600160405280602781526020016153c9602791396132c6565b9250505092915050565b606083156132d657829050613326565b6000835111156132e95782518084602001fd5b816040517f08c379a000000000000000000000000000000000000000000000000000000000815260040161331d9190613495565b60405180910390fd5b9392505050565b6000604051905090565b600080fd5b600080fd5b60007fffffffff0000000000000000000000000000000000000000000000000000000082169050919050565b61337681613341565b811461338157600080fd5b50565b6000813590506133938161336d565b92915050565b6000602082840312156133af576133ae613337565b5b60006133bd84828501613384565b91505092915050565b60008115159050919050565b6133db816133c6565b82525050565b60006020820190506133f660008301846133d2565b92915050565b600081519050919050565b600082825260208201905092915050565b60005b8381101561343657808201518184015260208101905061341b565b83811115613445576000848401525b50505050565b6000601f19601f8301169050919050565b6000613467826133fc565b6134718185613407565b9350613481818560208601613418565b61348a8161344b565b840191505092915050565b600060208201905081810360008301526134af818461345c565b905092915050565b6000819050919050565b6134ca816134b7565b81146134d557600080fd5b50565b6000813590506134e7816134c1565b92915050565b60006020828403121561350357613502613337565b5b6000613511848285016134d8565b91505092915050565b600073ffffffffffffffffffffffffffffffffffffffff82169050919050565b60006135458261351a565b9050919050565b6135558161353a565b82525050565b6000602082019050613570600083018461354c565b92915050565b61357f8161353a565b811461358a57600080fd5b50565b60008135905061359c81613576565b92915050565b600080604083850312156135b9576135b8613337565b5b60006135c78582860161358d565b92505060206135d8858286016134d8565b9150509250929050565b600080fd5b7f4e487b7100000000000000000000000000000000000000000000000000000000600052604160045260246000fd5b61361f8261344b565b810181811067ffffffffffffffff8211171561363e5761363d6135e7565b5b80604052505050565b600061365161332d565b905061365d8282613616565b919050565b600067ffffffffffffffff82111561367d5761367c6135e7565b5b602082029050602081019050919050565b600080fd5b60006136a66136a184613662565b613647565b905080838252602082019050602084028301858111156136c9576136c861368e565b5b835b818110156136f257806136de88826134d8565b8452602084019350506020810190506136cb565b5050509392505050565b600082601f830112613711576137106135e2565b5b8135613721848260208601613693565b91505092915050565b6000806040838503121561374157613740613337565b5b600061374f858286016134d8565b925050602083013567ffffffffffffffff8111156137705761376f61333c565b5b61377c858286016136fc565b9150509250929050565b60006020828403121561379c5761379b613337565b5b60006137aa8482850161358d565b91505092915050565b6000806000606084860312156137cc576137cb613337565b5b60006137da8682870161358d565b93505060206137eb8682870161358d565b92505060406137fc868287016134d8565b9150509250925092565b600080fd5b600067ffffffffffffffff821115613826576138256135e7565b5b61382f8261344b565b9050602081019050919050565b82818337600083830152505050565b600061385e6138598461380b565b613647565b90508281526020810184848401111561387a57613879613806565b5b61388584828561383c565b509392505050565b600082601f8301126138a2576138a16135e2565b5b81356138b284826020860161384b565b91505092915050565b600080604083850312156138d2576138d1613337565b5b60006138e08582860161358d565b925050602083013567ffffffffffffffff8111156139015761390061333c565b5b61390d8582860161388d565b9150509250929050565b6000819050919050565b61392a81613917565b82525050565b60006020820190506139456000830184613921565b92915050565b613954816134b7565b82525050565b600060208201905061396f600083018461394b565b92915050565b61397e816133c6565b811461398957600080fd5b50565b60008135905061399b81613975565b92915050565b600080604083850312156139b8576139b7613337565b5b60006139c68582860161358d565b92505060206139d78582860161398c565b9150509250929050565b600080600080608085870312156139fb576139fa613337565b5b6000613a098782880161358d565b9450506020613a1a8782880161358d565b9350506040613a2b878288016134d8565b925050606085013567ffffffffffffffff811115613a4c57613a4b61333c565b5b613a588782880161388d565b91505092959194509250565b600067ffffffffffffffff821115613a7f57613a7e6135e7565b5b613a888261344b565b9050602081019050919050565b6000613aa8613aa384613a64565b613647565b905082815260208101848484011115613ac457613ac3613806565b5b613acf84828561383c565b509392505050565b600082601f830112613aec57613aeb6135e2565b5b8135613afc848260208601613a95565b91505092915050565b600060208284031215613b1b57613b1a613337565b5b600082013567ffffffffffffffff811115613b3957613b3861333c565b5b613b4584828501613ad7565b91505092915050565b60008060408385031215613b6557613b64613337565b5b6000613b738582860161358d565b9250506020613b848582860161358d565b9150509250929050565b7f4e487b7100000000000000000000000000000000000000000000000000000000600052602260045260246000fd5b60006002820490506001821680613bd557607f821691505b602082108103613be857613be7613b8e565b5b50919050565b7f4552433732313a20617070726f76656420717565727920666f72206e6f6e657860008201527f697374656e7420746f6b656e0000000000000000000000000000000000000000602082015250565b6000613c4a602c83613407565b9150613c5582613bee565b604082019050919050565b60006020820190508181036000830152613c7981613c3d565b9050919050565b7f4552433732313a20617070726f76616c20746f2063757272656e74206f776e6560008201527f7200000000000000000000000000000000000000000000000000000000000000602082015250565b6000613cdc602183613407565b9150613ce782613c80565b604082019050919050565b60006020820190508181036000830152613d0b81613ccf565b9050919050565b7f4552433732313a20617070726f76652063616c6c6572206973206e6f74206f7760008201527f6e6572206e6f7220617070726f76656420666f7220616c6c0000000000000000602082015250565b6000613d6e603883613407565b9150613d7982613d12565b604082019050919050565b60006020820190508181036000830152613d9d81613d61565b9050919050565b6000604082019050613db9600083018561354c565b613dc6602083018461354c565b9392505050565b7f4552433732313a207472616e736665722063616c6c6572206973206e6f74206f60008201527f776e6572206e6f7220617070726f766564000000000000000000000000000000602082015250565b6000613e29603183613407565b9150613e3482613dcd565b604082019050919050565b60006020820190508181036000830152613e5881613e1c565b9050919050565b7f46756e6374696f6e206d7573742062652063616c6c6564207468726f7567682060008201527f64656c656761746563616c6c0000000000000000000000000000000000000000602082015250565b6000613ebb602c83613407565b9150613ec682613e5f565b604082019050919050565b60006020820190508181036000830152613eea81613eae565b9050919050565b7f46756e6374696f6e206d7573742062652063616c6c6564207468726f7567682060008201527f6163746976652070726f78790000000000000000000000000000000000000000602082015250565b6000613f4d602c83613407565b9150613f5882613ef1565b604082019050919050565b60006020820190508181036000830152613f7c81613f40565b9050919050565b7f555550535570677261646561626c653a206d757374206e6f742062652063616c60008201527f6c6564207468726f7567682064656c656761746563616c6c0000000000000000602082015250565b6000613fdf603883613407565b9150613fea82613f83565b604082019050919050565b6000602082019050818103600083015261400e81613fd2565b9050919050565b7f4552433732313a206f776e657220717565727920666f72206e6f6e657869737460008201527f656e7420746f6b656e0000000000000000000000000000000000000000000000602082015250565b6000614071602983613407565b915061407c82614015565b604082019050919050565b600060208201905081810360008301526140a081614064565b9050919050565b7f4552433732313a2062616c616e636520717565727920666f7220746865207a6560008201527f726f206164647265737300000000000000000000000000000000000000000000602082015250565b6000614103602a83613407565b915061410e826140a7565b604082019050919050565b60006020820190508181036000830152614132816140f6565b9050919050565b7f4f776e61626c653a2063616c6c6572206973206e6f7420746865206f776e6572600082015250565b600061416f602083613407565b915061417a82614139565b602082019050919050565b6000602082019050818103600083015261419e81614162565b9050919050565b6000819050919050565b600060ff82169050919050565b6000819050919050565b60006141e16141dc6141d7846141a5565b6141bc565b6141af565b9050919050565b6141f1816141c6565b82525050565b600060208201905061420c60008301846141e8565b92915050565b7f44696365206e6f7420726f6c6c65640000000000000000000000000000000000600082015250565b6000614248600f83613407565b915061425382614212565b602082019050919050565b600060208201905081810360008301526142778161423b565b9050919050565b7f526f6c6c20696e2070726f677265737300000000000000000000000000000000600082015250565b60006142b4601083613407565b91506142bf8261427e565b602082019050919050565b600060208201905081810360008301526142e3816142a7565b9050919050565b7f45524337323155524953746f726167653a2055524920717565727920666f722060008201527f6e6f6e6578697374656e7420746f6b656e000000000000000000000000000000602082015250565b6000614346603183613407565b9150614351826142ea565b604082019050919050565b6000602082019050818103600083015261437581614339565b9050919050565b600081905092915050565b6000614392826133fc565b61439c818561437c565b93506143ac818560208601613418565b80840191505092915050565b60006143c48285614387565b91506143d08284614387565b91508190509392505050565b600067ffffffffffffffff82169050919050565b6143f9816143dc565b82525050565b600061ffff82169050919050565b614416816143ff565b82525050565b600063ffffffff82169050919050565b6144358161441c565b82525050565b600060a0820190506144506000830188613921565b61445d60208301876143f0565b61446a604083018661440d565b614477606083018561442c565b614484608083018461442c565b9695505050505050565b60008151905061449d816134c1565b92915050565b6000602082840312156144b9576144b8613337565b5b60006144c78482850161448e565b91505092915050565b7f4f776e61626c653a206e6577206f776e657220697320746865207a65726f206160008201527f6464726573730000000000000000000000000000000000000000000000000000602082015250565b600061452c602683613407565b9150614537826144d0565b604082019050919050565b6000602082019050818103600083015261455b8161451f565b9050919050565b7f4e487b7100000000000000000000000000000000000000000000000000000000600052603260045260246000fd5b7f4e487b7100000000000000000000000000000000000000000000000000000000600052601260045260246000fd5b60006145cb826134b7565b91506145d6836134b7565b9250826145e6576145e5614591565b5b828206905092915050565b7f4e487b7100000000000000000000000000000000000000000000000000000000600052601160045260246000fd5b600061462b826134b7565b9150614636836134b7565b9250827fffffffffffffffffffffffffffffffffffffffffffffffffffffffffffffffff0382111561466b5761466a6145f1565b5b828201905092915050565b7f4552433732313a206f70657261746f7220717565727920666f72206e6f6e657860008201527f697374656e7420746f6b656e0000000000000000000000000000000000000000602082015250565b60006146d2602c83613407565b91506146dd82614676565b604082019050919050565b60006020820190508181036000830152614701816146c5565b9050919050565b7f4552433732313a207472616e736665722066726f6d20696e636f72726563742060008201527f6f776e6572000000000000000000000000000000000000000000000000000000602082015250565b6000614764602583613407565b915061476f82614708565b604082019050919050565b6000602082019050818103600083015261479381614757565b9050919050565b7f4552433732313a207472616e7366657220746f20746865207a65726f2061646460008201527f7265737300000000000000000000000000000000000000000000000000000000602082015250565b60006147f6602483613407565b91506148018261479a565b604082019050919050565b60006020820190508181036000830152614825816147e9565b9050919050565b6000614837826134b7565b9150614842836134b7565b925082821015614855576148546145f1565b5b828203905092915050565b61486981613917565b811461487457600080fd5b50565b60008151905061488681614860565b92915050565b6000602082840312156148a2576148a1613337565b5b60006148b084828501614877565b91505092915050565b7f45524331393637557067726164653a206e657720696d706c656d656e7461746960008201527f6f6e206973206e6f742055555053000000000000000000000000000000000000602082015250565b6000614915602e83613407565b9150614920826148b9565b604082019050919050565b6000602082019050818103600083015261494481614908565b9050919050565b7f45524331393637557067726164653a20756e737570706f727465642070726f7860008201527f6961626c65555549440000000000000000000000000000000000000000000000602082015250565b60006149a7602983613407565b91506149b28261494b565b604082019050919050565b600060208201905081810360008301526149d68161499a565b9050919050565b7f496e697469616c697a61626c653a20636f6e747261637420697320616c72656160008201527f647920696e697469616c697a6564000000000000000000000000000000000000602082015250565b6000614a39602e83613407565b9150614a44826149dd565b604082019050919050565b60006020820190508181036000830152614a6881614a2c565b9050919050565b7f496e697469616c697a61626c653a20636f6e7472616374206973206e6f74206960008201527f6e697469616c697a696e67000000000000000000000000000000000000000000602082015250565b6000614acb602b83613407565b9150614ad682614a6f565b604082019050919050565b60006020820190508181036000830152614afa81614abe565b9050919050565b7f4552433732313a20617070726f766520746f2063616c6c657200000000000000600082015250565b6000614b37601983613407565b9150614b4282614b01565b602082019050919050565b60006020820190508181036000830152614b6681614b2a565b9050919050565b7f4552433732313a207472616e7366657220746f206e6f6e20455243373231526560008201527f63656976657220696d706c656d656e7465720000000000000000000000000000602082015250565b6000614bc9603283613407565b9150614bd482614b6d565b604082019050919050565b60006020820190508181036000830152614bf881614bbc565b9050919050565b7f4552433732314d657461646174613a2055524920717565727920666f72206e6f60008201527f6e6578697374656e7420746f6b656e0000000000000000000000000000000000602082015250565b6000614c5b602f83613407565b9150614c6682614bff565b604082019050919050565b60006020820190508181036000830152614c8a81614c4e565b9050919050565b7f4552433732313a206d696e7420746f20746865207a65726f2061646472657373600082015250565b6000614cc7602083613407565b9150614cd282614c91565b602082019050919050565b60006020820190508181036000830152614cf681614cba565b9050919050565b7f4552433732313a20746f6b656e20616c7265616479206d696e74656400000000600082015250565b6000614d33601c83613407565b9150614d3e82614cfd565b602082019050919050565b60006020820190508181036000830152614d6281614d26565b9050919050565b7f45524337323155524953746f726167653a2055524920736574206f66206e6f6e60008201527f6578697374656e7420746f6b656e000000000000000000000000000000000000602082015250565b6000614dc5602e83613407565b9150614dd082614d69565b604082019050919050565b60006020820190508181036000830152614df481614db8565b9050919050565b60008190508160005260206000209050919050565b60006020601f8301049050919050565b600082821b905092915050565b600060088302614e5d7fffffffffffffffffffffffffffffffffffffffffffffffffffffffffffffffff82614e20565b614e678683614e20565b95508019841693508086168417925050509392505050565b6000614e9a614e95614e90846134b7565b6141bc565b6134b7565b9050919050565b6000819050919050565b614eb483614e7f565b614ec8614ec082614ea1565b848454614e2d565b825550505050565b600090565b614edd614ed0565b614ee8818484614eab565b505050565b5b81811015614f0c57614f01600082614ed5565b600181019050614eee565b5050565b601f821115614f5157614f2281614dfb565b614f2b84614e10565b81016020851015614f3a578190505b614f4e614f4685614e10565b830182614eed565b50505b505050565b600082821c905092915050565b6000614f7460001984600802614f56565b1980831691505092915050565b6000614f8d8383614f63565b9150826002028217905092915050565b614fa6826133fc565b67ffffffffffffffff811115614fbf57614fbe6135e7565b5b614fc98254613bbd565b614fd4828285614f10565b600060209050601f8311600181146150075760008415614ff5578287015190505b614fff8582614f81565b865550615067565b601f19841661501586614dfb565b60005b8281101561503d57848901518255600182019150602085019450602081019050615018565b8683101561505a5784890151615056601f891682614f63565b8355505b6001600288020188555050505b505050505050565b7f455243313936373a206e657720696d706c656d656e746174696f6e206973206e60008201527f6f74206120636f6e747261637400000000000000000000000000000000000000602082015250565b60006150cb602d83613407565b91506150d68261506f565b604082019050919050565b600060208201905081810360008301526150fa816150be565b9050919050565b600081519050919050565b600082825260208201905092915050565b600061512882615101565b615132818561510c565b9350615142818560208601613418565b61514b8161344b565b840191505092915050565b600060808201905061516b600083018761354c565b615178602083018661354c565b615185604083018561394b565b8181036060830152615197818461511d565b905095945050505050565b6000815190506151b18161336d565b92915050565b6000602082840312156151cd576151cc613337565b5b60006151db848285016151a2565b91505092915050565b60006151ef826134b7565b91507fffffffffffffffffffffffffffffffffffffffffffffffffffffffffffffffff8203615221576152206145f1565b5b600182019050919050565b6000615237826134b7565b9150615242836134b7565b92508261525257615251614591565b5b828204905092915050565b7f416464726573733a2064656c65676174652063616c6c20746f206e6f6e2d636f60008201527f6e74726163740000000000000000000000000000000000000000000000000000602082015250565b60006152b9602683613407565b91506152c48261525d565b604082019050919050565b600060208201905081810360008301526152e8816152ac565b9050919050565b600081905092915050565b600061530582615101565b61530f81856152ef565b935061531f818560208601613418565b80840191505092915050565b600061533782846152fa565b91508190509291505056fe68747470733a2f2f697066732e696f2f697066732f516d586950794b376f386a73726e7864527561766843597178754c5677396d7a67773969646467626e724847436a68747470733a2f2f697066732e696f2f697066732f516d626972426e447a55385a43644758734d4a686b333446385938506f7a6879464e6342773370546f397771484c416464726573733a206c6f772d6c6576656c2064656c65676174652063616c6c206661696c656468747470733a2f2f697066732e696f2f697066732f516d5437425458394b75725461634148736e674b356442444a77735048393545354731633332454c715150777553a2646970667358221220d92d40854e140e2dcef20b3e22c4d4f88312ae4450895e7fde5010b27d4e34f264736f6c634300080f0033",
  "linkReferences": {},
  "deployedLinkReferences": {}
}